{
	"contracts/Staking.sol": {
		"Staking": {
			"abi": [
				{
					"inputs": [
						{
							"internalType": "uint256",
							"name": "minNumValidators",
							"type": "uint256"
						},
						{
							"internalType": "uint256",
							"name": "maxNumValidators",
							"type": "uint256"
						}
					],
					"stateMutability": "nonpayable",
					"type": "constructor"
				},
				{
					"anonymous": false,
					"inputs": [
						{
							"indexed": true,
							"internalType": "address",
							"name": "account",
							"type": "address"
						},
						{
							"indexed": false,
							"internalType": "uint256",
							"name": "amount",
							"type": "uint256"
						}
					],
					"name": "Staked",
					"type": "event"
				},
				{
					"anonymous": false,
					"inputs": [
						{
							"indexed": true,
							"internalType": "address",
							"name": "account",
							"type": "address"
						},
						{
							"indexed": false,
							"internalType": "uint256",
							"name": "amount",
							"type": "uint256"
						}
					],
					"name": "Unstaked",
					"type": "event"
				},
				{
					"inputs": [],
					"name": "VALIDATOR_THRESHOLD",
					"outputs": [
						{
							"internalType": "uint128",
							"name": "",
							"type": "uint128"
						}
					],
					"stateMutability": "view",
					"type": "function"
				},
				{
					"inputs": [
						{
							"internalType": "address",
							"name": "",
							"type": "address"
						}
					],
					"name": "_addressToIsValidator",
					"outputs": [
						{
							"internalType": "bool",
							"name": "",
							"type": "bool"
						}
					],
					"stateMutability": "view",
					"type": "function"
				},
				{
					"inputs": [
						{
							"internalType": "address",
							"name": "",
							"type": "address"
						}
					],
					"name": "_addressToStakedAmount",
					"outputs": [
						{
							"internalType": "uint256",
							"name": "",
							"type": "uint256"
						}
					],
					"stateMutability": "view",
					"type": "function"
				},
				{
					"inputs": [
						{
							"internalType": "address",
							"name": "",
							"type": "address"
						}
					],
					"name": "_addressToValidatorIndex",
					"outputs": [
						{
							"internalType": "uint256",
							"name": "",
							"type": "uint256"
						}
					],
					"stateMutability": "view",
					"type": "function"
				},
				{
					"inputs": [],
					"name": "_maximumNumValidators",
					"outputs": [
						{
							"internalType": "uint256",
							"name": "",
							"type": "uint256"
						}
					],
					"stateMutability": "view",
					"type": "function"
				},
				{
					"inputs": [],
					"name": "_minimumNumValidators",
					"outputs": [
						{
							"internalType": "uint256",
							"name": "",
							"type": "uint256"
						}
					],
					"stateMutability": "view",
					"type": "function"
				},
				{
					"inputs": [],
					"name": "_stakedAmount",
					"outputs": [
						{
							"internalType": "uint256",
							"name": "",
							"type": "uint256"
						}
					],
					"stateMutability": "view",
					"type": "function"
				},
				{
					"inputs": [
						{
							"internalType": "uint256",
							"name": "",
							"type": "uint256"
						}
					],
					"name": "_validators",
					"outputs": [
						{
							"internalType": "address",
							"name": "",
							"type": "address"
						}
					],
					"stateMutability": "view",
					"type": "function"
				},
				{
					"inputs": [
						{
							"internalType": "address",
							"name": "addr",
							"type": "address"
						}
					],
					"name": "accountStake",
					"outputs": [
						{
							"internalType": "uint256",
							"name": "",
							"type": "uint256"
						}
					],
					"stateMutability": "view",
					"type": "function"
				},
				{
					"inputs": [
						{
							"internalType": "address",
							"name": "addr",
							"type": "address"
						}
					],
					"name": "isValidator",
					"outputs": [
						{
							"internalType": "bool",
							"name": "",
							"type": "bool"
						}
					],
					"stateMutability": "view",
					"type": "function"
				},
				{
					"inputs": [],
					"name": "maximumNumValidators",
					"outputs": [
						{
							"internalType": "uint256",
							"name": "",
							"type": "uint256"
						}
					],
					"stateMutability": "view",
					"type": "function"
				},
				{
					"inputs": [],
					"name": "minimumNumValidators",
					"outputs": [
						{
							"internalType": "uint256",
							"name": "",
							"type": "uint256"
						}
					],
					"stateMutability": "view",
					"type": "function"
				},
				{
					"inputs": [],
					"name": "stake",
					"outputs": [],
					"stateMutability": "payable",
					"type": "function"
				},
				{
					"inputs": [],
					"name": "stakedAmount",
					"outputs": [
						{
							"internalType": "uint256",
							"name": "",
							"type": "uint256"
						}
					],
					"stateMutability": "view",
					"type": "function"
				},
				{
					"inputs": [],
					"name": "unstake",
					"outputs": [],
					"stateMutability": "nonpayable",
					"type": "function"
				},
				{
					"inputs": [],
					"name": "validators",
					"outputs": [
						{
							"internalType": "address[]",
							"name": "",
							"type": "address[]"
						}
					],
					"stateMutability": "view",
					"type": "function"
				},
				{
					"stateMutability": "payable",
					"type": "receive"
				}
			],
			"devdoc": {
				"kind": "dev",
				"methods": {},
				"version": 1
			},
			"evm": {
				"assembly": "    /* \"contracts/Staking.sol\":110:4589  contract Staking {... */\n  mstore(0x40, 0x80)\n    /* \"contracts/Staking.sol\":1044:1372  constructor(uint256 minNumValidators, uint256 maxNumValidators) {... */\n  callvalue\n  dup1\n  iszero\n  tag_1\n  jumpi\n  0x00\n  dup1\n  revert\ntag_1:\n  pop\n  mload(0x40)\n  sub(codesize, bytecodeSize)\n  dup1\n  bytecodeSize\n  dup4\n  codecopy\n  dup2\n  dup2\n  add\n  0x40\n  mstore\n  dup2\n  add\n  swap1\n  tag_2\n  swap2\n  swap1\n  tag_3\n  jump\t// in\ntag_2:\n    /* \"contracts/Staking.sol\":1159:1175  maxNumValidators */\n  dup1\n    /* \"contracts/Staking.sol\":1139:1155  minNumValidators */\n  dup3\n    /* \"contracts/Staking.sol\":1139:1175  minNumValidators <= maxNumValidators */\n  gt\n  iszero\n    /* \"contracts/Staking.sol\":1118:1265  require(... */\n  tag_6\n  jumpi\n  mload(0x40)\n  0x08c379a000000000000000000000000000000000000000000000000000000000\n  dup2\n  mstore\n  0x04\n  add\n  tag_7\n  swap1\n  tag_8\n  jump\t// in\ntag_7:\n  mload(0x40)\n  dup1\n  swap2\n  sub\n  swap1\n  revert\ntag_6:\n    /* \"contracts/Staking.sol\":1299:1315  minNumValidators */\n  dup2\n    /* \"contracts/Staking.sol\":1275:1296  _minimumNumValidators */\n  0x05\n    /* \"contracts/Staking.sol\":1275:1315  _minimumNumValidators = minNumValidators */\n  dup2\n  swap1\n  sstore\n  pop\n    /* \"contracts/Staking.sol\":1349:1365  maxNumValidators */\n  dup1\n    /* \"contracts/Staking.sol\":1325:1346  _maximumNumValidators */\n  0x06\n    /* \"contracts/Staking.sol\":1325:1365  _maximumNumValidators = maxNumValidators */\n  dup2\n  swap1\n  sstore\n  pop\n    /* \"contracts/Staking.sol\":1044:1372  constructor(uint256 minNumValidators, uint256 maxNumValidators) {... */\n  pop\n  pop\n    /* \"contracts/Staking.sol\":110:4589  contract Staking {... */\n  jump(tag_9)\n    /* \"#utility.yul\":7:150   */\ntag_11:\n    /* \"#utility.yul\":64:69   */\n  0x00\n    /* \"#utility.yul\":95:101   */\n  dup2\n    /* \"#utility.yul\":89:102   */\n  mload\n    /* \"#utility.yul\":80:102   */\n  swap1\n  pop\n    /* \"#utility.yul\":111:144   */\n  tag_13\n    /* \"#utility.yul\":138:143   */\n  dup2\n    /* \"#utility.yul\":111:144   */\n  tag_14\n  jump\t// in\ntag_13:\n    /* \"#utility.yul\":7:150   */\n  swap3\n  swap2\n  pop\n  pop\n  jump\t// out\n    /* \"#utility.yul\":156:663   */\ntag_3:\n    /* \"#utility.yul\":235:241   */\n  0x00\n    /* \"#utility.yul\":243:249   */\n  dup1\n    /* \"#utility.yul\":292:294   */\n  0x40\n    /* \"#utility.yul\":280:289   */\n  dup4\n    /* \"#utility.yul\":271:278   */\n  dup6\n    /* \"#utility.yul\":267:290   */\n  sub\n    /* \"#utility.yul\":263:295   */\n  slt\n    /* \"#utility.yul\":260:379   */\n  iszero\n  tag_16\n  jumpi\n    /* \"#utility.yul\":298:377   */\n  tag_17\n  tag_18\n  jump\t// in\ntag_17:\n    /* \"#utility.yul\":260:379   */\ntag_16:\n    /* \"#utility.yul\":418:419   */\n  0x00\n    /* \"#utility.yul\":443:507   */\n  tag_19\n    /* \"#utility.yul\":499:506   */\n  dup6\n    /* \"#utility.yul\":490:496   */\n  dup3\n    /* \"#utility.yul\":479:488   */\n  dup7\n    /* \"#utility.yul\":475:497   */\n  add\n    /* \"#utility.yul\":443:507   */\n  tag_11\n  jump\t// in\ntag_19:\n    /* \"#utility.yul\":433:507   */\n  swap3\n  pop\n    /* \"#utility.yul\":389:517   */\n  pop\n    /* \"#utility.yul\":556:558   */\n  0x20\n    /* \"#utility.yul\":582:646   */\n  tag_20\n    /* \"#utility.yul\":638:645   */\n  dup6\n    /* \"#utility.yul\":629:635   */\n  dup3\n    /* \"#utility.yul\":618:627   */\n  dup7\n    /* \"#utility.yul\":614:636   */\n  add\n    /* \"#utility.yul\":582:646   */\n  tag_11\n  jump\t// in\ntag_20:\n    /* \"#utility.yul\":572:646   */\n  swap2\n  pop\n    /* \"#utility.yul\":527:656   */\n  pop\n    /* \"#utility.yul\":156:663   */\n  swap3\n  pop\n  swap3\n  swap1\n  pop\n  jump\t// out\n    /* \"#utility.yul\":669:1035   */\ntag_21:\n    /* \"#utility.yul\":811:814   */\n  0x00\n    /* \"#utility.yul\":832:899   */\n  tag_23\n    /* \"#utility.yul\":896:898   */\n  0x40\n    /* \"#utility.yul\":891:894   */\n  dup4\n    /* \"#utility.yul\":832:899   */\n  tag_24\n  jump\t// in\ntag_23:\n    /* \"#utility.yul\":825:899   */\n  swap2\n  pop\n    /* \"#utility.yul\":908:1001   */\n  tag_25\n    /* \"#utility.yul\":997:1000   */\n  dup3\n    /* \"#utility.yul\":908:1001   */\n  tag_26\n  jump\t// in\ntag_25:\n    /* \"#utility.yul\":1026:1028   */\n  0x40\n    /* \"#utility.yul\":1021:1024   */\n  dup3\n    /* \"#utility.yul\":1017:1029   */\n  add\n    /* \"#utility.yul\":1010:1029   */\n  swap1\n  pop\n    /* \"#utility.yul\":669:1035   */\n  swap2\n  swap1\n  pop\n  jump\t// out\n    /* \"#utility.yul\":1041:1460   */\ntag_8:\n    /* \"#utility.yul\":1207:1211   */\n  0x00\n    /* \"#utility.yul\":1245:1247   */\n  0x20\n    /* \"#utility.yul\":1234:1243   */\n  dup3\n    /* \"#utility.yul\":1230:1248   */\n  add\n    /* \"#utility.yul\":1222:1248   */\n  swap1\n  pop\n    /* \"#utility.yul\":1294:1303   */\n  dup2\n    /* \"#utility.yul\":1288:1292   */\n  dup2\n    /* \"#utility.yul\":1284:1304   */\n  sub\n    /* \"#utility.yul\":1280:1281   */\n  0x00\n    /* \"#utility.yul\":1269:1278   */\n  dup4\n    /* \"#utility.yul\":1265:1282   */\n  add\n    /* \"#utility.yul\":1258:1305   */\n  mstore\n    /* \"#utility.yul\":1322:1453   */\n  tag_28\n    /* \"#utility.yul\":1448:1452   */\n  dup2\n    /* \"#utility.yul\":1322:1453   */\n  tag_21\n  jump\t// in\ntag_28:\n    /* \"#utility.yul\":1314:1453   */\n  swap1\n  pop\n    /* \"#utility.yul\":1041:1460   */\n  swap2\n  swap1\n  pop\n  jump\t// out\n    /* \"#utility.yul\":1547:1716   */\ntag_24:\n    /* \"#utility.yul\":1631:1642   */\n  0x00\n    /* \"#utility.yul\":1665:1671   */\n  dup3\n    /* \"#utility.yul\":1660:1663   */\n  dup3\n    /* \"#utility.yul\":1653:1672   */\n  mstore\n    /* \"#utility.yul\":1705:1709   */\n  0x20\n    /* \"#utility.yul\":1700:1703   */\n  dup3\n    /* \"#utility.yul\":1696:1710   */\n  add\n    /* \"#utility.yul\":1681:1710   */\n  swap1\n  pop\n    /* \"#utility.yul\":1547:1716   */\n  swap3\n  swap2\n  pop\n  pop\n  jump\t// out\n    /* \"#utility.yul\":1722:1799   */\ntag_32:\n    /* \"#utility.yul\":1759:1766   */\n  0x00\n    /* \"#utility.yul\":1788:1793   */\n  dup2\n    /* \"#utility.yul\":1777:1793   */\n  swap1\n  pop\n    /* \"#utility.yul\":1722:1799   */\n  swap2\n  swap1\n  pop\n  jump\t// out\n    /* \"#utility.yul\":1928:2045   */\ntag_18:\n    /* \"#utility.yul\":2037:2038   */\n  0x00\n    /* \"#utility.yul\":2034:2035   */\n  dup1\n    /* \"#utility.yul\":2027:2039   */\n  revert\n    /* \"#utility.yul\":2051:2302   */\ntag_26:\n    /* \"#utility.yul\":2191:2225   */\n  0x4d696e2076616c696461746f7273206e756d2063616e206e6f74206265206772\n    /* \"#utility.yul\":2187:2188   */\n  0x00\n    /* \"#utility.yul\":2179:2185   */\n  dup3\n    /* \"#utility.yul\":2175:2189   */\n  add\n    /* \"#utility.yul\":2168:2226   */\n  mstore\n    /* \"#utility.yul\":2260:2294   */\n  0x6561746572207468616e206d6178206e756d206f662076616c696461746f7273\n    /* \"#utility.yul\":2255:2257   */\n  0x20\n    /* \"#utility.yul\":2247:2253   */\n  dup3\n    /* \"#utility.yul\":2243:2258   */\n  add\n    /* \"#utility.yul\":2236:2295   */\n  mstore\n    /* \"#utility.yul\":2051:2302   */\n  pop\n  jump\t// out\n    /* \"#utility.yul\":2308:2430   */\ntag_14:\n    /* \"#utility.yul\":2381:2405   */\n  tag_39\n    /* \"#utility.yul\":2399:2404   */\n  dup2\n    /* \"#utility.yul\":2381:2405   */\n  tag_32\n  jump\t// in\ntag_39:\n    /* \"#utility.yul\":2374:2379   */\n  dup2\n    /* \"#utility.yul\":2371:2406   */\n  eq\n    /* \"#utility.yul\":2361:2424   */\n  tag_40\n  jumpi\n    /* \"#utility.yul\":2420:2421   */\n  0x00\n    /* \"#utility.yul\":2417:2418   */\n  dup1\n    /* \"#utility.yul\":2410:2422   */\n  revert\n    /* \"#utility.yul\":2361:2424   */\ntag_40:\n    /* \"#utility.yul\":2308:2430   */\n  pop\n  jump\t// out\n    /* \"contracts/Staking.sol\":110:4589  contract Staking {... */\ntag_9:\n  dataSize(sub_0)\n  dup1\n  dataOffset(sub_0)\n  0x00\n  codecopy\n  0x00\n  return\nstop\n\nsub_0: assembly {\n        /* \"contracts/Staking.sol\":110:4589  contract Staking {... */\n      mstore(0x40, 0x80)\n      jumpi(tag_1, lt(calldatasize, 0x04))\n      shr(0xe0, calldataload(0x00))\n      dup1\n      0x7dceceb8\n      gt\n      tag_19\n      jumpi\n      dup1\n      0xe387a7ed\n      gt\n      tag_20\n      jumpi\n      dup1\n      0xe387a7ed\n      eq\n      tag_15\n      jumpi\n      dup1\n      0xe804fbf6\n      eq\n      tag_16\n      jumpi\n      dup1\n      0xf90ecacc\n      eq\n      tag_17\n      jumpi\n      dup1\n      0xfacd743b\n      eq\n      tag_18\n      jumpi\n      jump(tag_2)\n    tag_20:\n      dup1\n      0x7dceceb8\n      eq\n      tag_11\n      jumpi\n      dup1\n      0xaf6da36e\n      eq\n      tag_12\n      jumpi\n      dup1\n      0xc795c077\n      eq\n      tag_13\n      jumpi\n      dup1\n      0xca1e7819\n      eq\n      tag_14\n      jumpi\n      jump(tag_2)\n    tag_19:\n      dup1\n      0x373d6132\n      gt\n      tag_21\n      jumpi\n      dup1\n      0x373d6132\n      eq\n      tag_7\n      jumpi\n      dup1\n      0x3a4b66f1\n      eq\n      tag_8\n      jumpi\n      dup1\n      0x714ff425\n      eq\n      tag_9\n      jumpi\n      dup1\n      0x7a6eea37\n      eq\n      tag_10\n      jumpi\n      jump(tag_2)\n    tag_21:\n      dup1\n      0x02b75199\n      eq\n      tag_3\n      jumpi\n      dup1\n      0x065ae171\n      eq\n      tag_4\n      jumpi\n      dup1\n      0x2367f6b5\n      eq\n      tag_5\n      jumpi\n      dup1\n      0x2def6620\n      eq\n      tag_6\n      jumpi\n      jump(tag_2)\n    tag_1:\n      jumpi(tag_2, calldatasize)\n        /* \"contracts/Staking.sol\":796:819  msg.sender.isContract() */\n      tag_24\n        /* \"contracts/Staking.sol\":796:806  msg.sender */\n      caller\n        /* \"contracts/Staking.sol\":796:817  msg.sender.isContract */\n      0xffffffffffffffffffffffffffffffffffffffff\n      and\n      tag_25\n        /* \"contracts/Staking.sol\":796:819  msg.sender.isContract() */\n      jump\t// in\n    tag_24:\n        /* \"contracts/Staking.sol\":795:819  !msg.sender.isContract() */\n      iszero\n        /* \"contracts/Staking.sol\":787:850  require(!msg.sender.isContract(), \"Only EOA can call function\") */\n      tag_26\n      jumpi\n      mload(0x40)\n      0x08c379a000000000000000000000000000000000000000000000000000000000\n      dup2\n      mstore\n      0x04\n      add\n      tag_27\n      swap1\n      tag_28\n      jump\t// in\n    tag_27:\n      mload(0x40)\n      dup1\n      swap2\n      sub\n      swap1\n      revert\n    tag_26:\n        /* \"contracts/Staking.sol\":2137:2145  _stake() */\n      tag_30\n        /* \"contracts/Staking.sol\":2137:2143  _stake */\n      tag_31\n        /* \"contracts/Staking.sol\":2137:2145  _stake() */\n      jump\t// in\n    tag_30:\n        /* \"contracts/Staking.sol\":110:4589  contract Staking {... */\n      stop\n    tag_2:\n      0x00\n      dup1\n      revert\n        /* \"contracts/Staking.sol\":421:480  mapping(address => uint256) public _addressToValidatorIndex */\n    tag_3:\n      callvalue\n      dup1\n      iszero\n      tag_32\n      jumpi\n      0x00\n      dup1\n      revert\n    tag_32:\n      pop\n      tag_33\n      0x04\n      dup1\n      calldatasize\n      sub\n      dup2\n      add\n      swap1\n      tag_34\n      swap2\n      swap1\n      tag_35\n      jump\t// in\n    tag_34:\n      tag_36\n      jump\t// in\n    tag_33:\n      mload(0x40)\n      tag_37\n      swap2\n      swap1\n      tag_38\n      jump\t// in\n    tag_37:\n      mload(0x40)\n      dup1\n      swap2\n      sub\n      swap1\n      return\n        /* \"contracts/Staking.sol\":299:352  mapping(address => bool) public _addressToIsValidator */\n    tag_4:\n      callvalue\n      dup1\n      iszero\n      tag_39\n      jumpi\n      0x00\n      dup1\n      revert\n    tag_39:\n      pop\n      tag_40\n      0x04\n      dup1\n      calldatasize\n      sub\n      dup2\n      add\n      swap1\n      tag_41\n      swap2\n      swap1\n      tag_35\n      jump\t// in\n    tag_41:\n      tag_42\n      jump\t// in\n    tag_40:\n      mload(0x40)\n      tag_43\n      swap2\n      swap1\n      tag_44\n      jump\t// in\n    tag_43:\n      mload(0x40)\n      dup1\n      swap2\n      sub\n      swap1\n      return\n        /* \"contracts/Staking.sol\":1718:1836  function accountStake(address addr) public view returns (uint256) {... */\n    tag_5:\n      callvalue\n      dup1\n      iszero\n      tag_45\n      jumpi\n      0x00\n      dup1\n      revert\n    tag_45:\n      pop\n      tag_46\n      0x04\n      dup1\n      calldatasize\n      sub\n      dup2\n      add\n      swap1\n      tag_47\n      swap2\n      swap1\n      tag_35\n      jump\t// in\n    tag_47:\n      tag_48\n      jump\t// in\n    tag_46:\n      mload(0x40)\n      tag_49\n      swap2\n      swap1\n      tag_38\n      jump\t// in\n    tag_49:\n      mload(0x40)\n      dup1\n      swap2\n      sub\n      swap1\n      return\n        /* \"contracts/Staking.sol\":2229:2301  function unstake() public onlyEOA onlyStaker {... */\n    tag_6:\n      callvalue\n      dup1\n      iszero\n      tag_50\n      jumpi\n      0x00\n      dup1\n      revert\n    tag_50:\n      pop\n      tag_51\n      tag_52\n      jump\t// in\n    tag_51:\n      stop\n        /* \"contracts/Staking.sol\":1400:1491  function stakedAmount() public view returns (uint256) {... */\n    tag_7:\n      callvalue\n      dup1\n      iszero\n      tag_53\n      jumpi\n      0x00\n      dup1\n      revert\n    tag_53:\n      pop\n      tag_54\n      tag_55\n      jump\t// in\n    tag_54:\n      mload(0x40)\n      tag_56\n      swap2\n      swap1\n      tag_38\n      jump\t// in\n    tag_56:\n      mload(0x40)\n      dup1\n      swap2\n      sub\n      swap1\n      return\n        /* \"contracts/Staking.sol\":2158:2223  function stake() public payable onlyEOA {... */\n    tag_8:\n      tag_57\n      tag_58\n      jump\t// in\n    tag_57:\n      stop\n        /* \"contracts/Staking.sol\":1842:1949  function minimumNumValidators() public view returns (uint256) {... */\n    tag_9:\n      callvalue\n      dup1\n      iszero\n      tag_59\n      jumpi\n      0x00\n      dup1\n      revert\n    tag_59:\n      pop\n      tag_60\n      tag_61\n      jump\t// in\n    tag_60:\n      mload(0x40)\n      tag_62\n      swap2\n      swap1\n      tag_38\n      jump\t// in\n    tag_62:\n      mload(0x40)\n      dup1\n      swap2\n      sub\n      swap1\n      return\n        /* \"contracts/Staking.sol\":183:240  uint128 public constant VALIDATOR_THRESHOLD = .0001 ether */\n    tag_10:\n      callvalue\n      dup1\n      iszero\n      tag_63\n      jumpi\n      0x00\n      dup1\n      revert\n    tag_63:\n      pop\n      tag_64\n      tag_65\n      jump\t// in\n    tag_64:\n      mload(0x40)\n      tag_66\n      swap2\n      swap1\n      tag_67\n      jump\t// in\n    tag_66:\n      mload(0x40)\n      dup1\n      swap2\n      sub\n      swap1\n      return\n        /* \"contracts/Staking.sol\":358:415  mapping(address => uint256) public _addressToStakedAmount */\n    tag_11:\n      callvalue\n      dup1\n      iszero\n      tag_68\n      jumpi\n      0x00\n      dup1\n      revert\n    tag_68:\n      pop\n      tag_69\n      0x04\n      dup1\n      calldatasize\n      sub\n      dup2\n      add\n      swap1\n      tag_70\n      swap2\n      swap1\n      tag_35\n      jump\t// in\n    tag_70:\n      tag_71\n      jump\t// in\n    tag_69:\n      mload(0x40)\n      tag_72\n      swap2\n      swap1\n      tag_38\n      jump\t// in\n    tag_72:\n      mload(0x40)\n      dup1\n      swap2\n      sub\n      swap1\n      return\n        /* \"contracts/Staking.sol\":562:598  uint256 public _maximumNumValidators */\n    tag_12:\n      callvalue\n      dup1\n      iszero\n      tag_73\n      jumpi\n      0x00\n      dup1\n      revert\n    tag_73:\n      pop\n      tag_74\n      tag_75\n      jump\t// in\n    tag_74:\n      mload(0x40)\n      tag_76\n      swap2\n      swap1\n      tag_38\n      jump\t// in\n    tag_76:\n      mload(0x40)\n      dup1\n      swap2\n      sub\n      swap1\n      return\n        /* \"contracts/Staking.sol\":520:556  uint256 public _minimumNumValidators */\n    tag_13:\n      callvalue\n      dup1\n      iszero\n      tag_77\n      jumpi\n      0x00\n      dup1\n      revert\n    tag_77:\n      pop\n      tag_78\n      tag_79\n      jump\t// in\n    tag_78:\n      mload(0x40)\n      tag_80\n      swap2\n      swap1\n      tag_38\n      jump\t// in\n    tag_80:\n      mload(0x40)\n      dup1\n      swap2\n      sub\n      swap1\n      return\n        /* \"contracts/Staking.sol\":1497:1593  function validators() public view returns (address[] memory) {... */\n    tag_14:\n      callvalue\n      dup1\n      iszero\n      tag_81\n      jumpi\n      0x00\n      dup1\n      revert\n    tag_81:\n      pop\n      tag_82\n      tag_83\n      jump\t// in\n    tag_82:\n      mload(0x40)\n      tag_84\n      swap2\n      swap1\n      tag_85\n      jump\t// in\n    tag_84:\n      mload(0x40)\n      dup1\n      swap2\n      sub\n      swap1\n      return\n        /* \"contracts/Staking.sol\":486:514  uint256 public _stakedAmount */\n    tag_15:\n      callvalue\n      dup1\n      iszero\n      tag_86\n      jumpi\n      0x00\n      dup1\n      revert\n    tag_86:\n      pop\n      tag_87\n      tag_88\n      jump\t// in\n    tag_87:\n      mload(0x40)\n      tag_89\n      swap2\n      swap1\n      tag_38\n      jump\t// in\n    tag_89:\n      mload(0x40)\n      dup1\n      swap2\n      sub\n      swap1\n      return\n        /* \"contracts/Staking.sol\":1955:2062  function maximumNumValidators() public view returns (uint256) {... */\n    tag_16:\n      callvalue\n      dup1\n      iszero\n      tag_90\n      jumpi\n      0x00\n      dup1\n      revert\n    tag_90:\n      pop\n      tag_91\n      tag_92\n      jump\t// in\n    tag_91:\n      mload(0x40)\n      tag_93\n      swap2\n      swap1\n      tag_38\n      jump\t// in\n    tag_93:\n      mload(0x40)\n      dup1\n      swap2\n      sub\n      swap1\n      return\n        /* \"contracts/Staking.sol\":265:293  address[] public _validators */\n    tag_17:\n      callvalue\n      dup1\n      iszero\n      tag_94\n      jumpi\n      0x00\n      dup1\n      revert\n    tag_94:\n      pop\n      tag_95\n      0x04\n      dup1\n      calldatasize\n      sub\n      dup2\n      add\n      swap1\n      tag_96\n      swap2\n      swap1\n      tag_97\n      jump\t// in\n    tag_96:\n      tag_98\n      jump\t// in\n    tag_95:\n      mload(0x40)\n      tag_99\n      swap2\n      swap1\n      tag_100\n      jump\t// in\n    tag_99:\n      mload(0x40)\n      dup1\n      swap2\n      sub\n      swap1\n      return\n        /* \"contracts/Staking.sol\":1599:1712  function isValidator(address addr) public view returns (bool) {... */\n    tag_18:\n      callvalue\n      dup1\n      iszero\n      tag_101\n      jumpi\n      0x00\n      dup1\n      revert\n    tag_101:\n      pop\n      tag_102\n      0x04\n      dup1\n      calldatasize\n      sub\n      dup2\n      add\n      swap1\n      tag_103\n      swap2\n      swap1\n      tag_35\n      jump\t// in\n    tag_103:\n      tag_104\n      jump\t// in\n    tag_102:\n      mload(0x40)\n      tag_105\n      swap2\n      swap1\n      tag_44\n      jump\t// in\n    tag_105:\n      mload(0x40)\n      dup1\n      swap2\n      sub\n      swap1\n      return\n        /* \"@openzeppelin/contracts/utils/Address.sol\":1175:1495  function isContract(address account) internal view returns (bool) {... */\n    tag_25:\n        /* \"@openzeppelin/contracts/utils/Address.sol\":1235:1239  bool */\n      0x00\n        /* \"@openzeppelin/contracts/utils/Address.sol\":1487:1488  0 */\n      dup1\n        /* \"@openzeppelin/contracts/utils/Address.sol\":1465:1472  account */\n      dup3\n        /* \"@openzeppelin/contracts/utils/Address.sol\":1465:1484  account.code.length */\n      0xffffffffffffffffffffffffffffffffffffffff\n      and\n      extcodesize\n        /* \"@openzeppelin/contracts/utils/Address.sol\":1465:1488  account.code.length > 0 */\n      gt\n        /* \"@openzeppelin/contracts/utils/Address.sol\":1458:1488  return account.code.length > 0 */\n      swap1\n      pop\n        /* \"@openzeppelin/contracts/utils/Address.sol\":1175:1495  function isContract(address account) internal view returns (bool) {... */\n      swap2\n      swap1\n      pop\n      jump\t// out\n        /* \"contracts/Staking.sol\":2332:2608  function _stake() private {... */\n    tag_31:\n        /* \"contracts/Staking.sol\":2385:2394  msg.value */\n      callvalue\n        /* \"contracts/Staking.sol\":2368:2381  _stakedAmount */\n      0x04\n      0x00\n        /* \"contracts/Staking.sol\":2368:2394  _stakedAmount += msg.value */\n      dup3\n      dup3\n      sload\n      tag_108\n      swap2\n      swap1\n      tag_109\n      jump\t// in\n    tag_108:\n      swap3\n      pop\n      pop\n      dup2\n      swap1\n      sstore\n      pop\n        /* \"contracts/Staking.sol\":2442:2451  msg.value */\n      callvalue\n        /* \"contracts/Staking.sol\":2404:2426  _addressToStakedAmount */\n      0x02\n        /* \"contracts/Staking.sol\":2404:2438  _addressToStakedAmount[msg.sender] */\n      0x00\n        /* \"contracts/Staking.sol\":2427:2437  msg.sender */\n      caller\n        /* \"contracts/Staking.sol\":2404:2438  _addressToStakedAmount[msg.sender] */\n      0xffffffffffffffffffffffffffffffffffffffff\n      and\n      0xffffffffffffffffffffffffffffffffffffffff\n      and\n      dup2\n      mstore\n      0x20\n      add\n      swap1\n      dup2\n      mstore\n      0x20\n      add\n      0x00\n      keccak256\n      0x00\n        /* \"contracts/Staking.sol\":2404:2451  _addressToStakedAmount[msg.sender] += msg.value */\n      dup3\n      dup3\n      sload\n      tag_110\n      swap2\n      swap1\n      tag_109\n      jump\t// in\n    tag_110:\n      swap3\n      pop\n      pop\n      dup2\n      swap1\n      sstore\n      pop\n        /* \"contracts/Staking.sol\":2466:2497  _canBecomeValidator(msg.sender) */\n      tag_111\n        /* \"contracts/Staking.sol\":2486:2496  msg.sender */\n      caller\n        /* \"contracts/Staking.sol\":2466:2485  _canBecomeValidator */\n      tag_112\n        /* \"contracts/Staking.sol\":2466:2497  _canBecomeValidator(msg.sender) */\n      jump\t// in\n    tag_111:\n        /* \"contracts/Staking.sol\":2462:2557  if (_canBecomeValidator(msg.sender)) {... */\n      iszero\n      tag_113\n      jumpi\n        /* \"contracts/Staking.sol\":2513:2546  _appendToValidatorSet(msg.sender) */\n      tag_114\n        /* \"contracts/Staking.sol\":2535:2545  msg.sender */\n      caller\n        /* \"contracts/Staking.sol\":2513:2534  _appendToValidatorSet */\n      tag_115\n        /* \"contracts/Staking.sol\":2513:2546  _appendToValidatorSet(msg.sender) */\n      jump\t// in\n    tag_114:\n        /* \"contracts/Staking.sol\":2462:2557  if (_canBecomeValidator(msg.sender)) {... */\n    tag_113:\n        /* \"contracts/Staking.sol\":2579:2589  msg.sender */\n      caller\n        /* \"contracts/Staking.sol\":2572:2601  Staked(msg.sender, msg.value) */\n      0xffffffffffffffffffffffffffffffffffffffff\n      and\n      0x9e71bc8eea02a63969f509818f2dafb9254532904319f9dbda79b67bd34a5f3d\n        /* \"contracts/Staking.sol\":2591:2600  msg.value */\n      callvalue\n        /* \"contracts/Staking.sol\":2572:2601  Staked(msg.sender, msg.value) */\n      mload(0x40)\n      tag_116\n      swap2\n      swap1\n      tag_38\n      jump\t// in\n    tag_116:\n      mload(0x40)\n      dup1\n      swap2\n      sub\n      swap1\n      log2\n        /* \"contracts/Staking.sol\":2332:2608  function _stake() private {... */\n      jump\t// out\n        /* \"contracts/Staking.sol\":421:480  mapping(address => uint256) public _addressToValidatorIndex */\n    tag_36:\n      mstore(0x20, 0x03)\n      dup1\n      0x00\n      mstore\n      keccak256(0x00, 0x40)\n      0x00\n      swap2\n      pop\n      swap1\n      pop\n      sload\n      dup2\n      jump\t// out\n        /* \"contracts/Staking.sol\":299:352  mapping(address => bool) public _addressToIsValidator */\n    tag_42:\n      mstore(0x20, 0x01)\n      dup1\n      0x00\n      mstore\n      keccak256(0x00, 0x40)\n      0x00\n      swap2\n      pop\n      sload\n      swap1\n      0x0100\n      exp\n      swap1\n      div\n      0xff\n      and\n      dup2\n      jump\t// out\n        /* \"contracts/Staking.sol\":1718:1836  function accountStake(address addr) public view returns (uint256) {... */\n    tag_48:\n        /* \"contracts/Staking.sol\":1775:1782  uint256 */\n      0x00\n        /* \"contracts/Staking.sol\":1801:1823  _addressToStakedAmount */\n      0x02\n        /* \"contracts/Staking.sol\":1801:1829  _addressToStakedAmount[addr] */\n      0x00\n        /* \"contracts/Staking.sol\":1824:1828  addr */\n      dup4\n        /* \"contracts/Staking.sol\":1801:1829  _addressToStakedAmount[addr] */\n      0xffffffffffffffffffffffffffffffffffffffff\n      and\n      0xffffffffffffffffffffffffffffffffffffffff\n      and\n      dup2\n      mstore\n      0x20\n      add\n      swap1\n      dup2\n      mstore\n      0x20\n      add\n      0x00\n      keccak256\n      sload\n        /* \"contracts/Staking.sol\":1794:1829  return _addressToStakedAmount[addr] */\n      swap1\n      pop\n        /* \"contracts/Staking.sol\":1718:1836  function accountStake(address addr) public view returns (uint256) {... */\n      swap2\n      swap1\n      pop\n      jump\t// out\n        /* \"contracts/Staking.sol\":2229:2301  function unstake() public onlyEOA onlyStaker {... */\n    tag_52:\n        /* \"contracts/Staking.sol\":796:819  msg.sender.isContract() */\n      tag_119\n        /* \"contracts/Staking.sol\":796:806  msg.sender */\n      caller\n        /* \"contracts/Staking.sol\":796:817  msg.sender.isContract */\n      0xffffffffffffffffffffffffffffffffffffffff\n      and\n      tag_25\n        /* \"contracts/Staking.sol\":796:819  msg.sender.isContract() */\n      jump\t// in\n    tag_119:\n        /* \"contracts/Staking.sol\":795:819  !msg.sender.isContract() */\n      iszero\n        /* \"contracts/Staking.sol\":787:850  require(!msg.sender.isContract(), \"Only EOA can call function\") */\n      tag_120\n      jumpi\n      mload(0x40)\n      0x08c379a000000000000000000000000000000000000000000000000000000000\n      dup2\n      mstore\n      0x04\n      add\n      tag_121\n      swap1\n      tag_28\n      jump\t// in\n    tag_121:\n      mload(0x40)\n      dup1\n      swap2\n      sub\n      swap1\n      revert\n    tag_120:\n        /* \"contracts/Staking.sol\":964:965  0 */\n      0x00\n        /* \"contracts/Staking.sol\":927:949  _addressToStakedAmount */\n      0x02\n        /* \"contracts/Staking.sol\":927:961  _addressToStakedAmount[msg.sender] */\n      0x00\n        /* \"contracts/Staking.sol\":950:960  msg.sender */\n      caller\n        /* \"contracts/Staking.sol\":927:961  _addressToStakedAmount[msg.sender] */\n      0xffffffffffffffffffffffffffffffffffffffff\n      and\n      0xffffffffffffffffffffffffffffffffffffffff\n      and\n      dup2\n      mstore\n      0x20\n      add\n      swap1\n      dup2\n      mstore\n      0x20\n      add\n      0x00\n      keccak256\n      sload\n        /* \"contracts/Staking.sol\":927:965  _addressToStakedAmount[msg.sender] > 0 */\n      gt\n        /* \"contracts/Staking.sol\":906:1020  require(... */\n      tag_123\n      jumpi\n      mload(0x40)\n      0x08c379a000000000000000000000000000000000000000000000000000000000\n      dup2\n      mstore\n      0x04\n      add\n      tag_124\n      swap1\n      tag_125\n      jump\t// in\n    tag_124:\n      mload(0x40)\n      dup1\n      swap2\n      sub\n      swap1\n      revert\n    tag_123:\n        /* \"contracts/Staking.sol\":2284:2294  _unstake() */\n      tag_127\n        /* \"contracts/Staking.sol\":2284:2292  _unstake */\n      tag_128\n        /* \"contracts/Staking.sol\":2284:2294  _unstake() */\n      jump\t// in\n    tag_127:\n        /* \"contracts/Staking.sol\":2229:2301  function unstake() public onlyEOA onlyStaker {... */\n      jump\t// out\n        /* \"contracts/Staking.sol\":1400:1491  function stakedAmount() public view returns (uint256) {... */\n    tag_55:\n        /* \"contracts/Staking.sol\":1445:1452  uint256 */\n      0x00\n        /* \"contracts/Staking.sol\":1471:1484  _stakedAmount */\n      sload(0x04)\n        /* \"contracts/Staking.sol\":1464:1484  return _stakedAmount */\n      swap1\n      pop\n        /* \"contracts/Staking.sol\":1400:1491  function stakedAmount() public view returns (uint256) {... */\n      swap1\n      jump\t// out\n        /* \"contracts/Staking.sol\":2158:2223  function stake() public payable onlyEOA {... */\n    tag_58:\n        /* \"contracts/Staking.sol\":796:819  msg.sender.isContract() */\n      tag_131\n        /* \"contracts/Staking.sol\":796:806  msg.sender */\n      caller\n        /* \"contracts/Staking.sol\":796:817  msg.sender.isContract */\n      0xffffffffffffffffffffffffffffffffffffffff\n      and\n      tag_25\n        /* \"contracts/Staking.sol\":796:819  msg.sender.isContract() */\n      jump\t// in\n    tag_131:\n        /* \"contracts/Staking.sol\":795:819  !msg.sender.isContract() */\n      iszero\n        /* \"contracts/Staking.sol\":787:850  require(!msg.sender.isContract(), \"Only EOA can call function\") */\n      tag_132\n      jumpi\n      mload(0x40)\n      0x08c379a000000000000000000000000000000000000000000000000000000000\n      dup2\n      mstore\n      0x04\n      add\n      tag_133\n      swap1\n      tag_28\n      jump\t// in\n    tag_133:\n      mload(0x40)\n      dup1\n      swap2\n      sub\n      swap1\n      revert\n    tag_132:\n        /* \"contracts/Staking.sol\":2208:2216  _stake() */\n      tag_135\n        /* \"contracts/Staking.sol\":2208:2214  _stake */\n      tag_31\n        /* \"contracts/Staking.sol\":2208:2216  _stake() */\n      jump\t// in\n    tag_135:\n        /* \"contracts/Staking.sol\":2158:2223  function stake() public payable onlyEOA {... */\n      jump\t// out\n        /* \"contracts/Staking.sol\":1842:1949  function minimumNumValidators() public view returns (uint256) {... */\n    tag_61:\n        /* \"contracts/Staking.sol\":1895:1902  uint256 */\n      0x00\n        /* \"contracts/Staking.sol\":1921:1942  _minimumNumValidators */\n      sload(0x05)\n        /* \"contracts/Staking.sol\":1914:1942  return _minimumNumValidators */\n      swap1\n      pop\n        /* \"contracts/Staking.sol\":1842:1949  function minimumNumValidators() public view returns (uint256) {... */\n      swap1\n      jump\t// out\n        /* \"contracts/Staking.sol\":183:240  uint128 public constant VALIDATOR_THRESHOLD = .0001 ether */\n    tag_65:\n        /* \"contracts/Staking.sol\":229:240  .0001 ether */\n      0x5af3107a4000\n        /* \"contracts/Staking.sol\":183:240  uint128 public constant VALIDATOR_THRESHOLD = .0001 ether */\n      dup2\n      jump\t// out\n        /* \"contracts/Staking.sol\":358:415  mapping(address => uint256) public _addressToStakedAmount */\n    tag_71:\n      mstore(0x20, 0x02)\n      dup1\n      0x00\n      mstore\n      keccak256(0x00, 0x40)\n      0x00\n      swap2\n      pop\n      swap1\n      pop\n      sload\n      dup2\n      jump\t// out\n        /* \"contracts/Staking.sol\":562:598  uint256 public _maximumNumValidators */\n    tag_75:\n      sload(0x06)\n      dup2\n      jump\t// out\n        /* \"contracts/Staking.sol\":520:556  uint256 public _minimumNumValidators */\n    tag_79:\n      sload(0x05)\n      dup2\n      jump\t// out\n        /* \"contracts/Staking.sol\":1497:1593  function validators() public view returns (address[] memory) {... */\n    tag_83:\n        /* \"contracts/Staking.sol\":1540:1556  address[] memory */\n      0x60\n        /* \"contracts/Staking.sol\":1575:1586  _validators */\n      0x00\n        /* \"contracts/Staking.sol\":1568:1586  return _validators */\n      dup1\n      sload\n      dup1\n      0x20\n      mul\n      0x20\n      add\n      mload(0x40)\n      swap1\n      dup2\n      add\n      0x40\n      mstore\n      dup1\n      swap3\n      swap2\n      swap1\n      dup2\n      dup2\n      mstore\n      0x20\n      add\n      dup3\n      dup1\n      sload\n      dup1\n      iszero\n      tag_138\n      jumpi\n      0x20\n      mul\n      dup3\n      add\n      swap2\n      swap1\n      0x00\n      mstore\n      keccak256(0x00, 0x20)\n      swap1\n    tag_139:\n      dup2\n      0x00\n      swap1\n      sload\n      swap1\n      0x0100\n      exp\n      swap1\n      div\n      0xffffffffffffffffffffffffffffffffffffffff\n      and\n      0xffffffffffffffffffffffffffffffffffffffff\n      and\n      dup2\n      mstore\n      0x20\n      add\n      swap1\n      0x01\n      add\n      swap1\n      dup1\n      dup4\n      gt\n      tag_139\n      jumpi\n    tag_138:\n      pop\n      pop\n      pop\n      pop\n      pop\n      swap1\n      pop\n        /* \"contracts/Staking.sol\":1497:1593  function validators() public view returns (address[] memory) {... */\n      swap1\n      jump\t// out\n        /* \"contracts/Staking.sol\":486:514  uint256 public _stakedAmount */\n    tag_88:\n      sload(0x04)\n      dup2\n      jump\t// out\n        /* \"contracts/Staking.sol\":1955:2062  function maximumNumValidators() public view returns (uint256) {... */\n    tag_92:\n        /* \"contracts/Staking.sol\":2008:2015  uint256 */\n      0x00\n        /* \"contracts/Staking.sol\":2034:2055  _maximumNumValidators */\n      sload(0x06)\n        /* \"contracts/Staking.sol\":2027:2055  return _maximumNumValidators */\n      swap1\n      pop\n        /* \"contracts/Staking.sol\":1955:2062  function maximumNumValidators() public view returns (uint256) {... */\n      swap1\n      jump\t// out\n        /* \"contracts/Staking.sol\":265:293  address[] public _validators */\n    tag_98:\n      0x00\n      dup2\n      dup2\n      sload\n      dup2\n      lt\n      tag_141\n      jumpi\n      0x00\n      dup1\n      revert\n    tag_141:\n      swap1\n      0x00\n      mstore\n      keccak256(0x00, 0x20)\n      add\n      0x00\n      swap2\n      pop\n      sload\n      swap1\n      0x0100\n      exp\n      swap1\n      div\n      0xffffffffffffffffffffffffffffffffffffffff\n      and\n      dup2\n      jump\t// out\n        /* \"contracts/Staking.sol\":1599:1712  function isValidator(address addr) public view returns (bool) {... */\n    tag_104:\n        /* \"contracts/Staking.sol\":1655:1659  bool */\n      0x00\n        /* \"contracts/Staking.sol\":1678:1699  _addressToIsValidator */\n      0x01\n        /* \"contracts/Staking.sol\":1678:1705  _addressToIsValidator[addr] */\n      0x00\n        /* \"contracts/Staking.sol\":1700:1704  addr */\n      dup4\n        /* \"contracts/Staking.sol\":1678:1705  _addressToIsValidator[addr] */\n      0xffffffffffffffffffffffffffffffffffffffff\n      and\n      0xffffffffffffffffffffffffffffffffffffffff\n      and\n      dup2\n      mstore\n      0x20\n      add\n      swap1\n      dup2\n      mstore\n      0x20\n      add\n      0x00\n      keccak256\n      0x00\n      swap1\n      sload\n      swap1\n      0x0100\n      exp\n      swap1\n      div\n      0xff\n      and\n        /* \"contracts/Staking.sol\":1671:1705  return _addressToIsValidator[addr] */\n      swap1\n      pop\n        /* \"contracts/Staking.sol\":1599:1712  function isValidator(address addr) public view returns (bool) {... */\n      swap2\n      swap1\n      pop\n      jump\t// out\n        /* \"contracts/Staking.sol\":4385:4587  function _canBecomeValidator(address account) private view returns (bool) {... */\n    tag_112:\n        /* \"contracts/Staking.sol\":4453:4457  bool */\n      0x00\n        /* \"contracts/Staking.sol\":4489:4510  _isValidator(account) */\n      tag_145\n        /* \"contracts/Staking.sol\":4502:4509  account */\n      dup3\n        /* \"contracts/Staking.sol\":4489:4501  _isValidator */\n      tag_146\n        /* \"contracts/Staking.sol\":4489:4510  _isValidator(account) */\n      jump\t// in\n    tag_145:\n        /* \"contracts/Staking.sol\":4488:4510  !_isValidator(account) */\n      iszero\n        /* \"contracts/Staking.sol\":4488:4580  !_isValidator(account) &&... */\n      dup1\n      iszero\n      tag_147\n      jumpi\n      pop\n        /* \"contracts/Staking.sol\":229:240  .0001 ether */\n      0x5af3107a4000\n        /* \"contracts/Staking.sol\":4526:4580  _addressToStakedAmount[account] >= VALIDATOR_THRESHOLD */\n      0xffffffffffffffffffffffffffffffff\n      and\n        /* \"contracts/Staking.sol\":4526:4548  _addressToStakedAmount */\n      0x02\n        /* \"contracts/Staking.sol\":4526:4557  _addressToStakedAmount[account] */\n      0x00\n        /* \"contracts/Staking.sol\":4549:4556  account */\n      dup5\n        /* \"contracts/Staking.sol\":4526:4557  _addressToStakedAmount[account] */\n      0xffffffffffffffffffffffffffffffffffffffff\n      and\n      0xffffffffffffffffffffffffffffffffffffffff\n      and\n      dup2\n      mstore\n      0x20\n      add\n      swap1\n      dup2\n      mstore\n      0x20\n      add\n      0x00\n      keccak256\n      sload\n        /* \"contracts/Staking.sol\":4526:4580  _addressToStakedAmount[account] >= VALIDATOR_THRESHOLD */\n      lt\n      iszero\n        /* \"contracts/Staking.sol\":4488:4580  !_isValidator(account) &&... */\n    tag_147:\n        /* \"contracts/Staking.sol\":4469:4580  return... */\n      swap1\n      pop\n        /* \"contracts/Staking.sol\":4385:4587  function _canBecomeValidator(address account) private view returns (bool) {... */\n      swap2\n      swap1\n      pop\n      jump\t// out\n        /* \"contracts/Staking.sol\":3884:4252  function _appendToValidatorSet(address newValidator) private {... */\n    tag_115:\n        /* \"contracts/Staking.sol\":3997:4018  _maximumNumValidators */\n      sload(0x06)\n        /* \"contracts/Staking.sol\":3976:3987  _validators */\n      0x00\n        /* \"contracts/Staking.sol\":3976:3994  _validators.length */\n      dup1\n      sload\n      swap1\n      pop\n        /* \"contracts/Staking.sol\":3976:4018  _validators.length < _maximumNumValidators */\n      lt\n        /* \"contracts/Staking.sol\":3955:4083  require(... */\n      tag_149\n      jumpi\n      mload(0x40)\n      0x08c379a000000000000000000000000000000000000000000000000000000000\n      dup2\n      mstore\n      0x04\n      add\n      tag_150\n      swap1\n      tag_151\n      jump\t// in\n    tag_150:\n      mload(0x40)\n      dup1\n      swap2\n      sub\n      swap1\n      revert\n    tag_149:\n        /* \"contracts/Staking.sol\":4132:4136  true */\n      0x01\n        /* \"contracts/Staking.sol\":4094:4115  _addressToIsValidator */\n      dup1\n        /* \"contracts/Staking.sol\":4094:4129  _addressToIsValidator[newValidator] */\n      0x00\n        /* \"contracts/Staking.sol\":4116:4128  newValidator */\n      dup4\n        /* \"contracts/Staking.sol\":4094:4129  _addressToIsValidator[newValidator] */\n      0xffffffffffffffffffffffffffffffffffffffff\n      and\n      0xffffffffffffffffffffffffffffffffffffffff\n      and\n      dup2\n      mstore\n      0x20\n      add\n      swap1\n      dup2\n      mstore\n      0x20\n      add\n      0x00\n      keccak256\n      0x00\n        /* \"contracts/Staking.sol\":4094:4136  _addressToIsValidator[newValidator] = true */\n      0x0100\n      exp\n      dup2\n      sload\n      dup2\n      0xff\n      mul\n      not\n      and\n      swap1\n      dup4\n      iszero\n      iszero\n      mul\n      or\n      swap1\n      sstore\n      pop\n        /* \"contracts/Staking.sol\":4187:4198  _validators */\n      0x00\n        /* \"contracts/Staking.sol\":4187:4205  _validators.length */\n      dup1\n      sload\n      swap1\n      pop\n        /* \"contracts/Staking.sol\":4146:4170  _addressToValidatorIndex */\n      0x03\n        /* \"contracts/Staking.sol\":4146:4184  _addressToValidatorIndex[newValidator] */\n      0x00\n        /* \"contracts/Staking.sol\":4171:4183  newValidator */\n      dup4\n        /* \"contracts/Staking.sol\":4146:4184  _addressToValidatorIndex[newValidator] */\n      0xffffffffffffffffffffffffffffffffffffffff\n      and\n      0xffffffffffffffffffffffffffffffffffffffff\n      and\n      dup2\n      mstore\n      0x20\n      add\n      swap1\n      dup2\n      mstore\n      0x20\n      add\n      0x00\n      keccak256\n        /* \"contracts/Staking.sol\":4146:4205  _addressToValidatorIndex[newValidator] = _validators.length */\n      dup2\n      swap1\n      sstore\n      pop\n        /* \"contracts/Staking.sol\":4215:4226  _validators */\n      0x00\n        /* \"contracts/Staking.sol\":4232:4244  newValidator */\n      dup2\n        /* \"contracts/Staking.sol\":4215:4245  _validators.push(newValidator) */\n      swap1\n      dup1\n      0x01\n      dup2\n      sload\n      add\n      dup1\n      dup3\n      sstore\n      dup1\n      swap2\n      pop\n      pop\n      0x01\n      swap1\n      sub\n      swap1\n      0x00\n      mstore\n      keccak256(0x00, 0x20)\n      add\n      0x00\n      swap1\n      swap2\n      swap1\n      swap2\n      swap1\n      swap2\n      0x0100\n      exp\n      dup2\n      sload\n      dup2\n      0xffffffffffffffffffffffffffffffffffffffff\n      mul\n      not\n      and\n      swap1\n      dup4\n      0xffffffffffffffffffffffffffffffffffffffff\n      and\n      mul\n      or\n      swap1\n      sstore\n      pop\n        /* \"contracts/Staking.sol\":3884:4252  function _appendToValidatorSet(address newValidator) private {... */\n      pop\n      jump\t// out\n        /* \"contracts/Staking.sol\":2614:2980  function _unstake() private {... */\n    tag_128:\n        /* \"contracts/Staking.sol\":2652:2666  uint256 amount */\n      0x00\n        /* \"contracts/Staking.sol\":2669:2691  _addressToStakedAmount */\n      0x02\n        /* \"contracts/Staking.sol\":2669:2703  _addressToStakedAmount[msg.sender] */\n      0x00\n        /* \"contracts/Staking.sol\":2692:2702  msg.sender */\n      caller\n        /* \"contracts/Staking.sol\":2669:2703  _addressToStakedAmount[msg.sender] */\n      0xffffffffffffffffffffffffffffffffffffffff\n      and\n      0xffffffffffffffffffffffffffffffffffffffff\n      and\n      dup2\n      mstore\n      0x20\n      add\n      swap1\n      dup2\n      mstore\n      0x20\n      add\n      0x00\n      keccak256\n      sload\n        /* \"contracts/Staking.sol\":2652:2703  uint256 amount = _addressToStakedAmount[msg.sender] */\n      swap1\n      pop\n        /* \"contracts/Staking.sol\":2751:2752  0 */\n      0x00\n        /* \"contracts/Staking.sol\":2714:2736  _addressToStakedAmount */\n      0x02\n        /* \"contracts/Staking.sol\":2714:2748  _addressToStakedAmount[msg.sender] */\n      0x00\n        /* \"contracts/Staking.sol\":2737:2747  msg.sender */\n      caller\n        /* \"contracts/Staking.sol\":2714:2748  _addressToStakedAmount[msg.sender] */\n      0xffffffffffffffffffffffffffffffffffffffff\n      and\n      0xffffffffffffffffffffffffffffffffffffffff\n      and\n      dup2\n      mstore\n      0x20\n      add\n      swap1\n      dup2\n      mstore\n      0x20\n      add\n      0x00\n      keccak256\n        /* \"contracts/Staking.sol\":2714:2752  _addressToStakedAmount[msg.sender] = 0 */\n      dup2\n      swap1\n      sstore\n      pop\n        /* \"contracts/Staking.sol\":2779:2785  amount */\n      dup1\n        /* \"contracts/Staking.sol\":2762:2775  _stakedAmount */\n      0x04\n      0x00\n        /* \"contracts/Staking.sol\":2762:2785  _stakedAmount -= amount */\n      dup3\n      dup3\n      sload\n      tag_154\n      swap2\n      swap1\n      tag_155\n      jump\t// in\n    tag_154:\n      swap3\n      pop\n      pop\n      dup2\n      swap1\n      sstore\n      pop\n        /* \"contracts/Staking.sol\":2800:2824  _isValidator(msg.sender) */\n      tag_156\n        /* \"contracts/Staking.sol\":2813:2823  msg.sender */\n      caller\n        /* \"contracts/Staking.sol\":2800:2812  _isValidator */\n      tag_146\n        /* \"contracts/Staking.sol\":2800:2824  _isValidator(msg.sender) */\n      jump\t// in\n    tag_156:\n        /* \"contracts/Staking.sol\":2796:2884  if (_isValidator(msg.sender)) {... */\n      iszero\n      tag_157\n      jumpi\n        /* \"contracts/Staking.sol\":2840:2873  _deleteFromValidators(msg.sender) */\n      tag_158\n        /* \"contracts/Staking.sol\":2862:2872  msg.sender */\n      caller\n        /* \"contracts/Staking.sol\":2840:2861  _deleteFromValidators */\n      tag_159\n        /* \"contracts/Staking.sol\":2840:2873  _deleteFromValidators(msg.sender) */\n      jump\t// in\n    tag_158:\n        /* \"contracts/Staking.sol\":2796:2884  if (_isValidator(msg.sender)) {... */\n    tag_157:\n        /* \"contracts/Staking.sol\":2902:2912  msg.sender */\n      caller\n        /* \"contracts/Staking.sol\":2894:2922  payable(msg.sender).transfer */\n      0xffffffffffffffffffffffffffffffffffffffff\n      and\n        /* \"contracts/Staking.sol\":2894:2930  payable(msg.sender).transfer(amount) */\n      0x08fc\n        /* \"contracts/Staking.sol\":2923:2929  amount */\n      dup3\n        /* \"contracts/Staking.sol\":2894:2930  payable(msg.sender).transfer(amount) */\n      swap1\n      dup2\n      iszero\n      mul\n      swap1\n      mload(0x40)\n      0x00\n      mload(0x40)\n      dup1\n      dup4\n      sub\n      dup2\n      dup6\n      dup9\n      dup9\n      call\n      swap4\n      pop\n      pop\n      pop\n      pop\n      iszero\n      dup1\n      iszero\n      tag_161\n      jumpi\n      returndatasize\n      0x00\n      dup1\n      returndatacopy\n      revert(0x00, returndatasize)\n    tag_161:\n      pop\n        /* \"contracts/Staking.sol\":2954:2964  msg.sender */\n      caller\n        /* \"contracts/Staking.sol\":2945:2973  Unstaked(msg.sender, amount) */\n      0xffffffffffffffffffffffffffffffffffffffff\n      and\n      0x0f5bb82176feb1b5e747e28471aa92156a04d9f3ab9f45f28e2d704232b93f75\n        /* \"contracts/Staking.sol\":2966:2972  amount */\n      dup3\n        /* \"contracts/Staking.sol\":2945:2973  Unstaked(msg.sender, amount) */\n      mload(0x40)\n      tag_162\n      swap2\n      swap1\n      tag_38\n      jump\t// in\n    tag_162:\n      mload(0x40)\n      dup1\n      swap2\n      sub\n      swap1\n      log2\n        /* \"contracts/Staking.sol\":2642:2980  {... */\n      pop\n        /* \"contracts/Staking.sol\":2614:2980  function _unstake() private {... */\n      jump\t// out\n        /* \"contracts/Staking.sol\":4258:4379  function _isValidator(address account) private view returns (bool) {... */\n    tag_146:\n        /* \"contracts/Staking.sol\":4319:4323  bool */\n      0x00\n        /* \"contracts/Staking.sol\":4342:4363  _addressToIsValidator */\n      0x01\n        /* \"contracts/Staking.sol\":4342:4372  _addressToIsValidator[account] */\n      0x00\n        /* \"contracts/Staking.sol\":4364:4371  account */\n      dup4\n        /* \"contracts/Staking.sol\":4342:4372  _addressToIsValidator[account] */\n      0xffffffffffffffffffffffffffffffffffffffff\n      and\n      0xffffffffffffffffffffffffffffffffffffffff\n      and\n      dup2\n      mstore\n      0x20\n      add\n      swap1\n      dup2\n      mstore\n      0x20\n      add\n      0x00\n      keccak256\n      0x00\n      swap1\n      sload\n      swap1\n      0x0100\n      exp\n      swap1\n      div\n      0xff\n      and\n        /* \"contracts/Staking.sol\":4335:4372  return _addressToIsValidator[account] */\n      swap1\n      pop\n        /* \"contracts/Staking.sol\":4258:4379  function _isValidator(address account) private view returns (bool) {... */\n      swap2\n      swap1\n      pop\n      jump\t// out\n        /* \"contracts/Staking.sol\":2986:3878  function _deleteFromValidators(address staker) private {... */\n    tag_159:\n        /* \"contracts/Staking.sol\":3093:3114  _minimumNumValidators */\n      sload(0x05)\n        /* \"contracts/Staking.sol\":3072:3083  _validators */\n      0x00\n        /* \"contracts/Staking.sol\":3072:3090  _validators.length */\n      dup1\n      sload\n      swap1\n      pop\n        /* \"contracts/Staking.sol\":3072:3114  _validators.length > _minimumNumValidators */\n      gt\n        /* \"contracts/Staking.sol\":3051:3204  require(... */\n      tag_165\n      jumpi\n      mload(0x40)\n      0x08c379a000000000000000000000000000000000000000000000000000000000\n      dup2\n      mstore\n      0x04\n      add\n      tag_166\n      swap1\n      tag_167\n      jump\t// in\n    tag_166:\n      mload(0x40)\n      dup1\n      swap2\n      sub\n      swap1\n      revert\n    tag_165:\n        /* \"contracts/Staking.sol\":3271:3282  _validators */\n      0x00\n        /* \"contracts/Staking.sol\":3271:3289  _validators.length */\n      dup1\n      sload\n      swap1\n      pop\n        /* \"contracts/Staking.sol\":3236:3260  _addressToValidatorIndex */\n      0x03\n        /* \"contracts/Staking.sol\":3236:3268  _addressToValidatorIndex[staker] */\n      0x00\n        /* \"contracts/Staking.sol\":3261:3267  staker */\n      dup4\n        /* \"contracts/Staking.sol\":3236:3268  _addressToValidatorIndex[staker] */\n      0xffffffffffffffffffffffffffffffffffffffff\n      and\n      0xffffffffffffffffffffffffffffffffffffffff\n      and\n      dup2\n      mstore\n      0x20\n      add\n      swap1\n      dup2\n      mstore\n      0x20\n      add\n      0x00\n      keccak256\n      sload\n        /* \"contracts/Staking.sol\":3236:3289  _addressToValidatorIndex[staker] < _validators.length */\n      lt\n        /* \"contracts/Staking.sol\":3215:3333  require(... */\n      tag_168\n      jumpi\n      mload(0x40)\n      0x08c379a000000000000000000000000000000000000000000000000000000000\n      dup2\n      mstore\n      0x04\n      add\n      tag_169\n      swap1\n      tag_170\n      jump\t// in\n    tag_169:\n      mload(0x40)\n      dup1\n      swap2\n      sub\n      swap1\n      revert\n    tag_168:\n        /* \"contracts/Staking.sol\":3380:3393  uint256 index */\n      0x00\n        /* \"contracts/Staking.sol\":3396:3420  _addressToValidatorIndex */\n      0x03\n        /* \"contracts/Staking.sol\":3396:3428  _addressToValidatorIndex[staker] */\n      0x00\n        /* \"contracts/Staking.sol\":3421:3427  staker */\n      dup4\n        /* \"contracts/Staking.sol\":3396:3428  _addressToValidatorIndex[staker] */\n      0xffffffffffffffffffffffffffffffffffffffff\n      and\n      0xffffffffffffffffffffffffffffffffffffffff\n      and\n      dup2\n      mstore\n      0x20\n      add\n      swap1\n      dup2\n      mstore\n      0x20\n      add\n      0x00\n      keccak256\n      sload\n        /* \"contracts/Staking.sol\":3380:3428  uint256 index = _addressToValidatorIndex[staker] */\n      swap1\n      pop\n        /* \"contracts/Staking.sol\":3438:3455  uint256 lastIndex */\n      0x00\n        /* \"contracts/Staking.sol\":3479:3480  1 */\n      0x01\n        /* \"contracts/Staking.sol\":3458:3469  _validators */\n      0x00\n        /* \"contracts/Staking.sol\":3458:3476  _validators.length */\n      dup1\n      sload\n      swap1\n      pop\n        /* \"contracts/Staking.sol\":3458:3480  _validators.length - 1 */\n      tag_171\n      swap2\n      swap1\n      tag_155\n      jump\t// in\n    tag_171:\n        /* \"contracts/Staking.sol\":3438:3480  uint256 lastIndex = _validators.length - 1 */\n      swap1\n      pop\n        /* \"contracts/Staking.sol\":3504:3513  lastIndex */\n      dup1\n        /* \"contracts/Staking.sol\":3495:3500  index */\n      dup3\n        /* \"contracts/Staking.sol\":3495:3513  index != lastIndex */\n      eq\n        /* \"contracts/Staking.sol\":3491:3751  if (index != lastIndex) {... */\n      tag_172\n      jumpi\n        /* \"contracts/Staking.sol\":3600:3616  address lastAddr */\n      0x00\n        /* \"contracts/Staking.sol\":3619:3630  _validators */\n      dup1\n        /* \"contracts/Staking.sol\":3631:3640  lastIndex */\n      dup3\n        /* \"contracts/Staking.sol\":3619:3641  _validators[lastIndex] */\n      dup2\n      sload\n      dup2\n      lt\n      tag_173\n      jumpi\n      tag_174\n      tag_175\n      jump\t// in\n    tag_174:\n    tag_173:\n      swap1\n      0x00\n      mstore\n      keccak256(0x00, 0x20)\n      add\n      0x00\n      swap1\n      sload\n      swap1\n      0x0100\n      exp\n      swap1\n      div\n      0xffffffffffffffffffffffffffffffffffffffff\n      and\n        /* \"contracts/Staking.sol\":3600:3641  address lastAddr = _validators[lastIndex] */\n      swap1\n      pop\n        /* \"contracts/Staking.sol\":3676:3684  lastAddr */\n      dup1\n        /* \"contracts/Staking.sol\":3655:3666  _validators */\n      0x00\n        /* \"contracts/Staking.sol\":3667:3672  index */\n      dup5\n        /* \"contracts/Staking.sol\":3655:3673  _validators[index] */\n      dup2\n      sload\n      dup2\n      lt\n      tag_177\n      jumpi\n      tag_178\n      tag_175\n      jump\t// in\n    tag_178:\n    tag_177:\n      swap1\n      0x00\n      mstore\n      keccak256(0x00, 0x20)\n      add\n      0x00\n        /* \"contracts/Staking.sol\":3655:3684  _validators[index] = lastAddr */\n      0x0100\n      exp\n      dup2\n      sload\n      dup2\n      0xffffffffffffffffffffffffffffffffffffffff\n      mul\n      not\n      and\n      swap1\n      dup4\n      0xffffffffffffffffffffffffffffffffffffffff\n      and\n      mul\n      or\n      swap1\n      sstore\n      pop\n        /* \"contracts/Staking.sol\":3735:3740  index */\n      dup3\n        /* \"contracts/Staking.sol\":3698:3722  _addressToValidatorIndex */\n      0x03\n        /* \"contracts/Staking.sol\":3698:3732  _addressToValidatorIndex[lastAddr] */\n      0x00\n        /* \"contracts/Staking.sol\":3723:3731  lastAddr */\n      dup4\n        /* \"contracts/Staking.sol\":3698:3732  _addressToValidatorIndex[lastAddr] */\n      0xffffffffffffffffffffffffffffffffffffffff\n      and\n      0xffffffffffffffffffffffffffffffffffffffff\n      and\n      dup2\n      mstore\n      0x20\n      add\n      swap1\n      dup2\n      mstore\n      0x20\n      add\n      0x00\n      keccak256\n        /* \"contracts/Staking.sol\":3698:3740  _addressToValidatorIndex[lastAddr] = index */\n      dup2\n      swap1\n      sstore\n      pop\n        /* \"contracts/Staking.sol\":3515:3751  {... */\n      pop\n        /* \"contracts/Staking.sol\":3491:3751  if (index != lastIndex) {... */\n    tag_172:\n        /* \"contracts/Staking.sol\":3793:3798  false */\n      0x00\n        /* \"contracts/Staking.sol\":3761:3782  _addressToIsValidator */\n      0x01\n        /* \"contracts/Staking.sol\":3761:3790  _addressToIsValidator[staker] */\n      0x00\n        /* \"contracts/Staking.sol\":3783:3789  staker */\n      dup6\n        /* \"contracts/Staking.sol\":3761:3790  _addressToIsValidator[staker] */\n      0xffffffffffffffffffffffffffffffffffffffff\n      and\n      0xffffffffffffffffffffffffffffffffffffffff\n      and\n      dup2\n      mstore\n      0x20\n      add\n      swap1\n      dup2\n      mstore\n      0x20\n      add\n      0x00\n      keccak256\n      0x00\n        /* \"contracts/Staking.sol\":3761:3798  _addressToIsValidator[staker] = false */\n      0x0100\n      exp\n      dup2\n      sload\n      dup2\n      0xff\n      mul\n      not\n      and\n      swap1\n      dup4\n      iszero\n      iszero\n      mul\n      or\n      swap1\n      sstore\n      pop\n        /* \"contracts/Staking.sol\":3843:3844  0 */\n      0x00\n        /* \"contracts/Staking.sol\":3808:3832  _addressToValidatorIndex */\n      0x03\n        /* \"contracts/Staking.sol\":3808:3840  _addressToValidatorIndex[staker] */\n      0x00\n        /* \"contracts/Staking.sol\":3833:3839  staker */\n      dup6\n        /* \"contracts/Staking.sol\":3808:3840  _addressToValidatorIndex[staker] */\n      0xffffffffffffffffffffffffffffffffffffffff\n      and\n      0xffffffffffffffffffffffffffffffffffffffff\n      and\n      dup2\n      mstore\n      0x20\n      add\n      swap1\n      dup2\n      mstore\n      0x20\n      add\n      0x00\n      keccak256\n        /* \"contracts/Staking.sol\":3808:3844  _addressToValidatorIndex[staker] = 0 */\n      dup2\n      swap1\n      sstore\n      pop\n        /* \"contracts/Staking.sol\":3854:3865  _validators */\n      0x00\n        /* \"contracts/Staking.sol\":3854:3871  _validators.pop() */\n      dup1\n      sload\n      dup1\n      tag_180\n      jumpi\n      tag_181\n      tag_182\n      jump\t// in\n    tag_181:\n    tag_180:\n      0x01\n      swap1\n      sub\n      dup2\n      dup2\n      swap1\n      0x00\n      mstore\n      keccak256(0x00, 0x20)\n      add\n      exp(0x0100, 0x00)\n      dup2\n      sload\n      swap1\n      0xffffffffffffffffffffffffffffffffffffffff\n      mul\n      not\n      and\n      swap1\n      sstore\n      swap1\n      sstore\n        /* \"contracts/Staking.sol\":3041:3878  {... */\n      pop\n      pop\n        /* \"contracts/Staking.sol\":2986:3878  function _deleteFromValidators(address staker) private {... */\n      pop\n      jump\t// out\n        /* \"#utility.yul\":7:146   */\n    tag_185:\n        /* \"#utility.yul\":53:58   */\n      0x00\n        /* \"#utility.yul\":91:97   */\n      dup2\n        /* \"#utility.yul\":78:98   */\n      calldataload\n        /* \"#utility.yul\":69:98   */\n      swap1\n      pop\n        /* \"#utility.yul\":107:140   */\n      tag_187\n        /* \"#utility.yul\":134:139   */\n      dup2\n        /* \"#utility.yul\":107:140   */\n      tag_188\n      jump\t// in\n    tag_187:\n        /* \"#utility.yul\":7:146   */\n      swap3\n      swap2\n      pop\n      pop\n      jump\t// out\n        /* \"#utility.yul\":152:291   */\n    tag_189:\n        /* \"#utility.yul\":198:203   */\n      0x00\n        /* \"#utility.yul\":236:242   */\n      dup2\n        /* \"#utility.yul\":223:243   */\n      calldataload\n        /* \"#utility.yul\":214:243   */\n      swap1\n      pop\n        /* \"#utility.yul\":252:285   */\n      tag_191\n        /* \"#utility.yul\":279:284   */\n      dup2\n        /* \"#utility.yul\":252:285   */\n      tag_192\n      jump\t// in\n    tag_191:\n        /* \"#utility.yul\":152:291   */\n      swap3\n      swap2\n      pop\n      pop\n      jump\t// out\n        /* \"#utility.yul\":297:626   */\n    tag_35:\n        /* \"#utility.yul\":356:362   */\n      0x00\n        /* \"#utility.yul\":405:407   */\n      0x20\n        /* \"#utility.yul\":393:402   */\n      dup3\n        /* \"#utility.yul\":384:391   */\n      dup5\n        /* \"#utility.yul\":380:403   */\n      sub\n        /* \"#utility.yul\":376:408   */\n      slt\n        /* \"#utility.yul\":373:492   */\n      iszero\n      tag_194\n      jumpi\n        /* \"#utility.yul\":411:490   */\n      tag_195\n      tag_196\n      jump\t// in\n    tag_195:\n        /* \"#utility.yul\":373:492   */\n    tag_194:\n        /* \"#utility.yul\":531:532   */\n      0x00\n        /* \"#utility.yul\":556:609   */\n      tag_197\n        /* \"#utility.yul\":601:608   */\n      dup5\n        /* \"#utility.yul\":592:598   */\n      dup3\n        /* \"#utility.yul\":581:590   */\n      dup6\n        /* \"#utility.yul\":577:599   */\n      add\n        /* \"#utility.yul\":556:609   */\n      tag_185\n      jump\t// in\n    tag_197:\n        /* \"#utility.yul\":546:609   */\n      swap2\n      pop\n        /* \"#utility.yul\":502:619   */\n      pop\n        /* \"#utility.yul\":297:626   */\n      swap3\n      swap2\n      pop\n      pop\n      jump\t// out\n        /* \"#utility.yul\":632:961   */\n    tag_97:\n        /* \"#utility.yul\":691:697   */\n      0x00\n        /* \"#utility.yul\":740:742   */\n      0x20\n        /* \"#utility.yul\":728:737   */\n      dup3\n        /* \"#utility.yul\":719:726   */\n      dup5\n        /* \"#utility.yul\":715:738   */\n      sub\n        /* \"#utility.yul\":711:743   */\n      slt\n        /* \"#utility.yul\":708:827   */\n      iszero\n      tag_199\n      jumpi\n        /* \"#utility.yul\":746:825   */\n      tag_200\n      tag_196\n      jump\t// in\n    tag_200:\n        /* \"#utility.yul\":708:827   */\n    tag_199:\n        /* \"#utility.yul\":866:867   */\n      0x00\n        /* \"#utility.yul\":891:944   */\n      tag_201\n        /* \"#utility.yul\":936:943   */\n      dup5\n        /* \"#utility.yul\":927:933   */\n      dup3\n        /* \"#utility.yul\":916:925   */\n      dup6\n        /* \"#utility.yul\":912:934   */\n      add\n        /* \"#utility.yul\":891:944   */\n      tag_189\n      jump\t// in\n    tag_201:\n        /* \"#utility.yul\":881:944   */\n      swap2\n      pop\n        /* \"#utility.yul\":837:954   */\n      pop\n        /* \"#utility.yul\":632:961   */\n      swap3\n      swap2\n      pop\n      pop\n      jump\t// out\n        /* \"#utility.yul\":967:1146   */\n    tag_202:\n        /* \"#utility.yul\":1036:1046   */\n      0x00\n        /* \"#utility.yul\":1057:1103   */\n      tag_204\n        /* \"#utility.yul\":1099:1102   */\n      dup4\n        /* \"#utility.yul\":1091:1097   */\n      dup4\n        /* \"#utility.yul\":1057:1103   */\n      tag_205\n      jump\t// in\n    tag_204:\n        /* \"#utility.yul\":1135:1139   */\n      0x20\n        /* \"#utility.yul\":1130:1133   */\n      dup4\n        /* \"#utility.yul\":1126:1140   */\n      add\n        /* \"#utility.yul\":1112:1140   */\n      swap1\n      pop\n        /* \"#utility.yul\":967:1146   */\n      swap3\n      swap2\n      pop\n      pop\n      jump\t// out\n        /* \"#utility.yul\":1152:1260   */\n    tag_205:\n        /* \"#utility.yul\":1229:1253   */\n      tag_207\n        /* \"#utility.yul\":1247:1252   */\n      dup2\n        /* \"#utility.yul\":1229:1253   */\n      tag_208\n      jump\t// in\n    tag_207:\n        /* \"#utility.yul\":1224:1227   */\n      dup3\n        /* \"#utility.yul\":1217:1254   */\n      mstore\n        /* \"#utility.yul\":1152:1260   */\n      pop\n      pop\n      jump\t// out\n        /* \"#utility.yul\":1266:1384   */\n    tag_209:\n        /* \"#utility.yul\":1353:1377   */\n      tag_211\n        /* \"#utility.yul\":1371:1376   */\n      dup2\n        /* \"#utility.yul\":1353:1377   */\n      tag_208\n      jump\t// in\n    tag_211:\n        /* \"#utility.yul\":1348:1351   */\n      dup3\n        /* \"#utility.yul\":1341:1378   */\n      mstore\n        /* \"#utility.yul\":1266:1384   */\n      pop\n      pop\n      jump\t// out\n        /* \"#utility.yul\":1420:2152   */\n    tag_212:\n        /* \"#utility.yul\":1539:1542   */\n      0x00\n        /* \"#utility.yul\":1568:1622   */\n      tag_214\n        /* \"#utility.yul\":1616:1621   */\n      dup3\n        /* \"#utility.yul\":1568:1622   */\n      tag_215\n      jump\t// in\n    tag_214:\n        /* \"#utility.yul\":1638:1724   */\n      tag_216\n        /* \"#utility.yul\":1717:1723   */\n      dup2\n        /* \"#utility.yul\":1712:1715   */\n      dup6\n        /* \"#utility.yul\":1638:1724   */\n      tag_217\n      jump\t// in\n    tag_216:\n        /* \"#utility.yul\":1631:1724   */\n      swap4\n      pop\n        /* \"#utility.yul\":1748:1804   */\n      tag_218\n        /* \"#utility.yul\":1798:1803   */\n      dup4\n        /* \"#utility.yul\":1748:1804   */\n      tag_219\n      jump\t// in\n    tag_218:\n        /* \"#utility.yul\":1827:1834   */\n      dup1\n        /* \"#utility.yul\":1858:1859   */\n      0x00\n        /* \"#utility.yul\":1843:2127   */\n    tag_220:\n        /* \"#utility.yul\":1868:1874   */\n      dup4\n        /* \"#utility.yul\":1865:1866   */\n      dup2\n        /* \"#utility.yul\":1862:1875   */\n      lt\n        /* \"#utility.yul\":1843:2127   */\n      iszero\n      tag_222\n      jumpi\n        /* \"#utility.yul\":1944:1950   */\n      dup2\n        /* \"#utility.yul\":1938:1951   */\n      mload\n        /* \"#utility.yul\":1971:2034   */\n      tag_223\n        /* \"#utility.yul\":2030:2033   */\n      dup9\n        /* \"#utility.yul\":2015:2028   */\n      dup3\n        /* \"#utility.yul\":1971:2034   */\n      tag_202\n      jump\t// in\n    tag_223:\n        /* \"#utility.yul\":1964:2034   */\n      swap8\n      pop\n        /* \"#utility.yul\":2057:2117   */\n      tag_224\n        /* \"#utility.yul\":2110:2116   */\n      dup4\n        /* \"#utility.yul\":2057:2117   */\n      tag_225\n      jump\t// in\n    tag_224:\n        /* \"#utility.yul\":2047:2117   */\n      swap3\n      pop\n        /* \"#utility.yul\":1903:2127   */\n      pop\n        /* \"#utility.yul\":1890:1891   */\n      0x01\n        /* \"#utility.yul\":1887:1888   */\n      dup2\n        /* \"#utility.yul\":1883:1892   */\n      add\n        /* \"#utility.yul\":1878:1892   */\n      swap1\n      pop\n        /* \"#utility.yul\":1843:2127   */\n      jump(tag_220)\n    tag_222:\n        /* \"#utility.yul\":1847:1861   */\n      pop\n        /* \"#utility.yul\":2143:2146   */\n      dup6\n        /* \"#utility.yul\":2136:2146   */\n      swap4\n      pop\n        /* \"#utility.yul\":1544:2152   */\n      pop\n      pop\n      pop\n        /* \"#utility.yul\":1420:2152   */\n      swap3\n      swap2\n      pop\n      pop\n      jump\t// out\n        /* \"#utility.yul\":2158:2267   */\n    tag_226:\n        /* \"#utility.yul\":2239:2260   */\n      tag_228\n        /* \"#utility.yul\":2254:2259   */\n      dup2\n        /* \"#utility.yul\":2239:2260   */\n      tag_229\n      jump\t// in\n    tag_228:\n        /* \"#utility.yul\":2234:2237   */\n      dup3\n        /* \"#utility.yul\":2227:2261   */\n      mstore\n        /* \"#utility.yul\":2158:2267   */\n      pop\n      pop\n      jump\t// out\n        /* \"#utility.yul\":2273:2639   */\n    tag_230:\n        /* \"#utility.yul\":2415:2418   */\n      0x00\n        /* \"#utility.yul\":2436:2503   */\n      tag_232\n        /* \"#utility.yul\":2500:2502   */\n      0x1d\n        /* \"#utility.yul\":2495:2498   */\n      dup4\n        /* \"#utility.yul\":2436:2503   */\n      tag_233\n      jump\t// in\n    tag_232:\n        /* \"#utility.yul\":2429:2503   */\n      swap2\n      pop\n        /* \"#utility.yul\":2512:2605   */\n      tag_234\n        /* \"#utility.yul\":2601:2604   */\n      dup3\n        /* \"#utility.yul\":2512:2605   */\n      tag_235\n      jump\t// in\n    tag_234:\n        /* \"#utility.yul\":2630:2632   */\n      0x20\n        /* \"#utility.yul\":2625:2628   */\n      dup3\n        /* \"#utility.yul\":2621:2633   */\n      add\n        /* \"#utility.yul\":2614:2633   */\n      swap1\n      pop\n        /* \"#utility.yul\":2273:2639   */\n      swap2\n      swap1\n      pop\n      jump\t// out\n        /* \"#utility.yul\":2645:3011   */\n    tag_236:\n        /* \"#utility.yul\":2787:2790   */\n      0x00\n        /* \"#utility.yul\":2808:2875   */\n      tag_238\n        /* \"#utility.yul\":2872:2874   */\n      0x27\n        /* \"#utility.yul\":2867:2870   */\n      dup4\n        /* \"#utility.yul\":2808:2875   */\n      tag_233\n      jump\t// in\n    tag_238:\n        /* \"#utility.yul\":2801:2875   */\n      swap2\n      pop\n        /* \"#utility.yul\":2884:2977   */\n      tag_239\n        /* \"#utility.yul\":2973:2976   */\n      dup3\n        /* \"#utility.yul\":2884:2977   */\n      tag_240\n      jump\t// in\n    tag_239:\n        /* \"#utility.yul\":3002:3004   */\n      0x40\n        /* \"#utility.yul\":2997:3000   */\n      dup3\n        /* \"#utility.yul\":2993:3005   */\n      add\n        /* \"#utility.yul\":2986:3005   */\n      swap1\n      pop\n        /* \"#utility.yul\":2645:3011   */\n      swap2\n      swap1\n      pop\n      jump\t// out\n        /* \"#utility.yul\":3017:3383   */\n    tag_241:\n        /* \"#utility.yul\":3159:3162   */\n      0x00\n        /* \"#utility.yul\":3180:3247   */\n      tag_243\n        /* \"#utility.yul\":3244:3246   */\n      0x12\n        /* \"#utility.yul\":3239:3242   */\n      dup4\n        /* \"#utility.yul\":3180:3247   */\n      tag_233\n      jump\t// in\n    tag_243:\n        /* \"#utility.yul\":3173:3247   */\n      swap2\n      pop\n        /* \"#utility.yul\":3256:3349   */\n      tag_244\n        /* \"#utility.yul\":3345:3348   */\n      dup3\n        /* \"#utility.yul\":3256:3349   */\n      tag_245\n      jump\t// in\n    tag_244:\n        /* \"#utility.yul\":3374:3376   */\n      0x20\n        /* \"#utility.yul\":3369:3372   */\n      dup3\n        /* \"#utility.yul\":3365:3377   */\n      add\n        /* \"#utility.yul\":3358:3377   */\n      swap1\n      pop\n        /* \"#utility.yul\":3017:3383   */\n      swap2\n      swap1\n      pop\n      jump\t// out\n        /* \"#utility.yul\":3389:3755   */\n    tag_246:\n        /* \"#utility.yul\":3531:3534   */\n      0x00\n        /* \"#utility.yul\":3552:3619   */\n      tag_248\n        /* \"#utility.yul\":3616:3618   */\n      0x1a\n        /* \"#utility.yul\":3611:3614   */\n      dup4\n        /* \"#utility.yul\":3552:3619   */\n      tag_233\n      jump\t// in\n    tag_248:\n        /* \"#utility.yul\":3545:3619   */\n      swap2\n      pop\n        /* \"#utility.yul\":3628:3721   */\n      tag_249\n        /* \"#utility.yul\":3717:3720   */\n      dup3\n        /* \"#utility.yul\":3628:3721   */\n      tag_250\n      jump\t// in\n    tag_249:\n        /* \"#utility.yul\":3746:3748   */\n      0x20\n        /* \"#utility.yul\":3741:3744   */\n      dup3\n        /* \"#utility.yul\":3737:3749   */\n      add\n        /* \"#utility.yul\":3730:3749   */\n      swap1\n      pop\n        /* \"#utility.yul\":3389:3755   */\n      swap2\n      swap1\n      pop\n      jump\t// out\n        /* \"#utility.yul\":3761:4127   */\n    tag_251:\n        /* \"#utility.yul\":3903:3906   */\n      0x00\n        /* \"#utility.yul\":3924:3991   */\n      tag_253\n        /* \"#utility.yul\":3988:3990   */\n      0x40\n        /* \"#utility.yul\":3983:3986   */\n      dup4\n        /* \"#utility.yul\":3924:3991   */\n      tag_233\n      jump\t// in\n    tag_253:\n        /* \"#utility.yul\":3917:3991   */\n      swap2\n      pop\n        /* \"#utility.yul\":4000:4093   */\n      tag_254\n        /* \"#utility.yul\":4089:4092   */\n      dup3\n        /* \"#utility.yul\":4000:4093   */\n      tag_255\n      jump\t// in\n    tag_254:\n        /* \"#utility.yul\":4118:4120   */\n      0x40\n        /* \"#utility.yul\":4113:4116   */\n      dup3\n        /* \"#utility.yul\":4109:4121   */\n      add\n        /* \"#utility.yul\":4102:4121   */\n      swap1\n      pop\n        /* \"#utility.yul\":3761:4127   */\n      swap2\n      swap1\n      pop\n      jump\t// out\n        /* \"#utility.yul\":4133:4251   */\n    tag_256:\n        /* \"#utility.yul\":4220:4244   */\n      tag_258\n        /* \"#utility.yul\":4238:4243   */\n      dup2\n        /* \"#utility.yul\":4220:4244   */\n      tag_259\n      jump\t// in\n    tag_258:\n        /* \"#utility.yul\":4215:4218   */\n      dup3\n        /* \"#utility.yul\":4208:4245   */\n      mstore\n        /* \"#utility.yul\":4133:4251   */\n      pop\n      pop\n      jump\t// out\n        /* \"#utility.yul\":4257:4375   */\n    tag_260:\n        /* \"#utility.yul\":4344:4368   */\n      tag_262\n        /* \"#utility.yul\":4362:4367   */\n      dup2\n        /* \"#utility.yul\":4344:4368   */\n      tag_263\n      jump\t// in\n    tag_262:\n        /* \"#utility.yul\":4339:4342   */\n      dup3\n        /* \"#utility.yul\":4332:4369   */\n      mstore\n        /* \"#utility.yul\":4257:4375   */\n      pop\n      pop\n      jump\t// out\n        /* \"#utility.yul\":4381:4603   */\n    tag_100:\n        /* \"#utility.yul\":4474:4478   */\n      0x00\n        /* \"#utility.yul\":4512:4514   */\n      0x20\n        /* \"#utility.yul\":4501:4510   */\n      dup3\n        /* \"#utility.yul\":4497:4515   */\n      add\n        /* \"#utility.yul\":4489:4515   */\n      swap1\n      pop\n        /* \"#utility.yul\":4525:4596   */\n      tag_265\n        /* \"#utility.yul\":4593:4594   */\n      0x00\n        /* \"#utility.yul\":4582:4591   */\n      dup4\n        /* \"#utility.yul\":4578:4595   */\n      add\n        /* \"#utility.yul\":4569:4575   */\n      dup5\n        /* \"#utility.yul\":4525:4596   */\n      tag_209\n      jump\t// in\n    tag_265:\n        /* \"#utility.yul\":4381:4603   */\n      swap3\n      swap2\n      pop\n      pop\n      jump\t// out\n        /* \"#utility.yul\":4609:4982   */\n    tag_85:\n        /* \"#utility.yul\":4752:4756   */\n      0x00\n        /* \"#utility.yul\":4790:4792   */\n      0x20\n        /* \"#utility.yul\":4779:4788   */\n      dup3\n        /* \"#utility.yul\":4775:4793   */\n      add\n        /* \"#utility.yul\":4767:4793   */\n      swap1\n      pop\n        /* \"#utility.yul\":4839:4848   */\n      dup2\n        /* \"#utility.yul\":4833:4837   */\n      dup2\n        /* \"#utility.yul\":4829:4849   */\n      sub\n        /* \"#utility.yul\":4825:4826   */\n      0x00\n        /* \"#utility.yul\":4814:4823   */\n      dup4\n        /* \"#utility.yul\":4810:4827   */\n      add\n        /* \"#utility.yul\":4803:4850   */\n      mstore\n        /* \"#utility.yul\":4867:4975   */\n      tag_267\n        /* \"#utility.yul\":4970:4974   */\n      dup2\n        /* \"#utility.yul\":4961:4967   */\n      dup5\n        /* \"#utility.yul\":4867:4975   */\n      tag_212\n      jump\t// in\n    tag_267:\n        /* \"#utility.yul\":4859:4975   */\n      swap1\n      pop\n        /* \"#utility.yul\":4609:4982   */\n      swap3\n      swap2\n      pop\n      pop\n      jump\t// out\n        /* \"#utility.yul\":4988:5198   */\n    tag_44:\n        /* \"#utility.yul\":5075:5079   */\n      0x00\n        /* \"#utility.yul\":5113:5115   */\n      0x20\n        /* \"#utility.yul\":5102:5111   */\n      dup3\n        /* \"#utility.yul\":5098:5116   */\n      add\n        /* \"#utility.yul\":5090:5116   */\n      swap1\n      pop\n        /* \"#utility.yul\":5126:5191   */\n      tag_269\n        /* \"#utility.yul\":5188:5189   */\n      0x00\n        /* \"#utility.yul\":5177:5186   */\n      dup4\n        /* \"#utility.yul\":5173:5190   */\n      add\n        /* \"#utility.yul\":5164:5170   */\n      dup5\n        /* \"#utility.yul\":5126:5191   */\n      tag_226\n      jump\t// in\n    tag_269:\n        /* \"#utility.yul\":4988:5198   */\n      swap3\n      swap2\n      pop\n      pop\n      jump\t// out\n        /* \"#utility.yul\":5204:5623   */\n    tag_125:\n        /* \"#utility.yul\":5370:5374   */\n      0x00\n        /* \"#utility.yul\":5408:5410   */\n      0x20\n        /* \"#utility.yul\":5397:5406   */\n      dup3\n        /* \"#utility.yul\":5393:5411   */\n      add\n        /* \"#utility.yul\":5385:5411   */\n      swap1\n      pop\n        /* \"#utility.yul\":5457:5466   */\n      dup2\n        /* \"#utility.yul\":5451:5455   */\n      dup2\n        /* \"#utility.yul\":5447:5467   */\n      sub\n        /* \"#utility.yul\":5443:5444   */\n      0x00\n        /* \"#utility.yul\":5432:5441   */\n      dup4\n        /* \"#utility.yul\":5428:5445   */\n      add\n        /* \"#utility.yul\":5421:5468   */\n      mstore\n        /* \"#utility.yul\":5485:5616   */\n      tag_271\n        /* \"#utility.yul\":5611:5615   */\n      dup2\n        /* \"#utility.yul\":5485:5616   */\n      tag_230\n      jump\t// in\n    tag_271:\n        /* \"#utility.yul\":5477:5616   */\n      swap1\n      pop\n        /* \"#utility.yul\":5204:5623   */\n      swap2\n      swap1\n      pop\n      jump\t// out\n        /* \"#utility.yul\":5629:6048   */\n    tag_151:\n        /* \"#utility.yul\":5795:5799   */\n      0x00\n        /* \"#utility.yul\":5833:5835   */\n      0x20\n        /* \"#utility.yul\":5822:5831   */\n      dup3\n        /* \"#utility.yul\":5818:5836   */\n      add\n        /* \"#utility.yul\":5810:5836   */\n      swap1\n      pop\n        /* \"#utility.yul\":5882:5891   */\n      dup2\n        /* \"#utility.yul\":5876:5880   */\n      dup2\n        /* \"#utility.yul\":5872:5892   */\n      sub\n        /* \"#utility.yul\":5868:5869   */\n      0x00\n        /* \"#utility.yul\":5857:5866   */\n      dup4\n        /* \"#utility.yul\":5853:5870   */\n      add\n        /* \"#utility.yul\":5846:5893   */\n      mstore\n        /* \"#utility.yul\":5910:6041   */\n      tag_273\n        /* \"#utility.yul\":6036:6040   */\n      dup2\n        /* \"#utility.yul\":5910:6041   */\n      tag_236\n      jump\t// in\n    tag_273:\n        /* \"#utility.yul\":5902:6041   */\n      swap1\n      pop\n        /* \"#utility.yul\":5629:6048   */\n      swap2\n      swap1\n      pop\n      jump\t// out\n        /* \"#utility.yul\":6054:6473   */\n    tag_170:\n        /* \"#utility.yul\":6220:6224   */\n      0x00\n        /* \"#utility.yul\":6258:6260   */\n      0x20\n        /* \"#utility.yul\":6247:6256   */\n      dup3\n        /* \"#utility.yul\":6243:6261   */\n      add\n        /* \"#utility.yul\":6235:6261   */\n      swap1\n      pop\n        /* \"#utility.yul\":6307:6316   */\n      dup2\n        /* \"#utility.yul\":6301:6305   */\n      dup2\n        /* \"#utility.yul\":6297:6317   */\n      sub\n        /* \"#utility.yul\":6293:6294   */\n      0x00\n        /* \"#utility.yul\":6282:6291   */\n      dup4\n        /* \"#utility.yul\":6278:6295   */\n      add\n        /* \"#utility.yul\":6271:6318   */\n      mstore\n        /* \"#utility.yul\":6335:6466   */\n      tag_275\n        /* \"#utility.yul\":6461:6465   */\n      dup2\n        /* \"#utility.yul\":6335:6466   */\n      tag_241\n      jump\t// in\n    tag_275:\n        /* \"#utility.yul\":6327:6466   */\n      swap1\n      pop\n        /* \"#utility.yul\":6054:6473   */\n      swap2\n      swap1\n      pop\n      jump\t// out\n        /* \"#utility.yul\":6479:6898   */\n    tag_28:\n        /* \"#utility.yul\":6645:6649   */\n      0x00\n        /* \"#utility.yul\":6683:6685   */\n      0x20\n        /* \"#utility.yul\":6672:6681   */\n      dup3\n        /* \"#utility.yul\":6668:6686   */\n      add\n        /* \"#utility.yul\":6660:6686   */\n      swap1\n      pop\n        /* \"#utility.yul\":6732:6741   */\n      dup2\n        /* \"#utility.yul\":6726:6730   */\n      dup2\n        /* \"#utility.yul\":6722:6742   */\n      sub\n        /* \"#utility.yul\":6718:6719   */\n      0x00\n        /* \"#utility.yul\":6707:6716   */\n      dup4\n        /* \"#utility.yul\":6703:6720   */\n      add\n        /* \"#utility.yul\":6696:6743   */\n      mstore\n        /* \"#utility.yul\":6760:6891   */\n      tag_277\n        /* \"#utility.yul\":6886:6890   */\n      dup2\n        /* \"#utility.yul\":6760:6891   */\n      tag_246\n      jump\t// in\n    tag_277:\n        /* \"#utility.yul\":6752:6891   */\n      swap1\n      pop\n        /* \"#utility.yul\":6479:6898   */\n      swap2\n      swap1\n      pop\n      jump\t// out\n        /* \"#utility.yul\":6904:7323   */\n    tag_167:\n        /* \"#utility.yul\":7070:7074   */\n      0x00\n        /* \"#utility.yul\":7108:7110   */\n      0x20\n        /* \"#utility.yul\":7097:7106   */\n      dup3\n        /* \"#utility.yul\":7093:7111   */\n      add\n        /* \"#utility.yul\":7085:7111   */\n      swap1\n      pop\n        /* \"#utility.yul\":7157:7166   */\n      dup2\n        /* \"#utility.yul\":7151:7155   */\n      dup2\n        /* \"#utility.yul\":7147:7167   */\n      sub\n        /* \"#utility.yul\":7143:7144   */\n      0x00\n        /* \"#utility.yul\":7132:7141   */\n      dup4\n        /* \"#utility.yul\":7128:7145   */\n      add\n        /* \"#utility.yul\":7121:7168   */\n      mstore\n        /* \"#utility.yul\":7185:7316   */\n      tag_279\n        /* \"#utility.yul\":7311:7315   */\n      dup2\n        /* \"#utility.yul\":7185:7316   */\n      tag_251\n      jump\t// in\n    tag_279:\n        /* \"#utility.yul\":7177:7316   */\n      swap1\n      pop\n        /* \"#utility.yul\":6904:7323   */\n      swap2\n      swap1\n      pop\n      jump\t// out\n        /* \"#utility.yul\":7329:7551   */\n    tag_67:\n        /* \"#utility.yul\":7422:7426   */\n      0x00\n        /* \"#utility.yul\":7460:7462   */\n      0x20\n        /* \"#utility.yul\":7449:7458   */\n      dup3\n        /* \"#utility.yul\":7445:7463   */\n      add\n        /* \"#utility.yul\":7437:7463   */\n      swap1\n      pop\n        /* \"#utility.yul\":7473:7544   */\n      tag_281\n        /* \"#utility.yul\":7541:7542   */\n      0x00\n        /* \"#utility.yul\":7530:7539   */\n      dup4\n        /* \"#utility.yul\":7526:7543   */\n      add\n        /* \"#utility.yul\":7517:7523   */\n      dup5\n        /* \"#utility.yul\":7473:7544   */\n      tag_256\n      jump\t// in\n    tag_281:\n        /* \"#utility.yul\":7329:7551   */\n      swap3\n      swap2\n      pop\n      pop\n      jump\t// out\n        /* \"#utility.yul\":7557:7779   */\n    tag_38:\n        /* \"#utility.yul\":7650:7654   */\n      0x00\n        /* \"#utility.yul\":7688:7690   */\n      0x20\n        /* \"#utility.yul\":7677:7686   */\n      dup3\n        /* \"#utility.yul\":7673:7691   */\n      add\n        /* \"#utility.yul\":7665:7691   */\n      swap1\n      pop\n        /* \"#utility.yul\":7701:7772   */\n      tag_283\n        /* \"#utility.yul\":7769:7770   */\n      0x00\n        /* \"#utility.yul\":7758:7767   */\n      dup4\n        /* \"#utility.yul\":7754:7771   */\n      add\n        /* \"#utility.yul\":7745:7751   */\n      dup5\n        /* \"#utility.yul\":7701:7772   */\n      tag_260\n      jump\t// in\n    tag_283:\n        /* \"#utility.yul\":7557:7779   */\n      swap3\n      swap2\n      pop\n      pop\n      jump\t// out\n        /* \"#utility.yul\":7866:7998   */\n    tag_219:\n        /* \"#utility.yul\":7933:7937   */\n      0x00\n        /* \"#utility.yul\":7956:7959   */\n      dup2\n        /* \"#utility.yul\":7948:7959   */\n      swap1\n      pop\n        /* \"#utility.yul\":7986:7990   */\n      0x20\n        /* \"#utility.yul\":7981:7984   */\n      dup3\n        /* \"#utility.yul\":7977:7991   */\n      add\n        /* \"#utility.yul\":7969:7991   */\n      swap1\n      pop\n        /* \"#utility.yul\":7866:7998   */\n      swap2\n      swap1\n      pop\n      jump\t// out\n        /* \"#utility.yul\":8004:8118   */\n    tag_215:\n        /* \"#utility.yul\":8071:8077   */\n      0x00\n        /* \"#utility.yul\":8105:8110   */\n      dup2\n        /* \"#utility.yul\":8099:8111   */\n      mload\n        /* \"#utility.yul\":8089:8111   */\n      swap1\n      pop\n        /* \"#utility.yul\":8004:8118   */\n      swap2\n      swap1\n      pop\n      jump\t// out\n        /* \"#utility.yul\":8124:8237   */\n    tag_225:\n        /* \"#utility.yul\":8194:8198   */\n      0x00\n        /* \"#utility.yul\":8226:8230   */\n      0x20\n        /* \"#utility.yul\":8221:8224   */\n      dup3\n        /* \"#utility.yul\":8217:8231   */\n      add\n        /* \"#utility.yul\":8209:8231   */\n      swap1\n      pop\n        /* \"#utility.yul\":8124:8237   */\n      swap2\n      swap1\n      pop\n      jump\t// out\n        /* \"#utility.yul\":8243:8427   */\n    tag_217:\n        /* \"#utility.yul\":8342:8353   */\n      0x00\n        /* \"#utility.yul\":8376:8382   */\n      dup3\n        /* \"#utility.yul\":8371:8374   */\n      dup3\n        /* \"#utility.yul\":8364:8383   */\n      mstore\n        /* \"#utility.yul\":8416:8420   */\n      0x20\n        /* \"#utility.yul\":8411:8414   */\n      dup3\n        /* \"#utility.yul\":8407:8421   */\n      add\n        /* \"#utility.yul\":8392:8421   */\n      swap1\n      pop\n        /* \"#utility.yul\":8243:8427   */\n      swap3\n      swap2\n      pop\n      pop\n      jump\t// out\n        /* \"#utility.yul\":8433:8602   */\n    tag_233:\n        /* \"#utility.yul\":8517:8528   */\n      0x00\n        /* \"#utility.yul\":8551:8557   */\n      dup3\n        /* \"#utility.yul\":8546:8549   */\n      dup3\n        /* \"#utility.yul\":8539:8558   */\n      mstore\n        /* \"#utility.yul\":8591:8595   */\n      0x20\n        /* \"#utility.yul\":8586:8589   */\n      dup3\n        /* \"#utility.yul\":8582:8596   */\n      add\n        /* \"#utility.yul\":8567:8596   */\n      swap1\n      pop\n        /* \"#utility.yul\":8433:8602   */\n      swap3\n      swap2\n      pop\n      pop\n      jump\t// out\n        /* \"#utility.yul\":8608:8913   */\n    tag_109:\n        /* \"#utility.yul\":8648:8651   */\n      0x00\n        /* \"#utility.yul\":8667:8687   */\n      tag_292\n        /* \"#utility.yul\":8685:8686   */\n      dup3\n        /* \"#utility.yul\":8667:8687   */\n      tag_263\n      jump\t// in\n    tag_292:\n        /* \"#utility.yul\":8662:8687   */\n      swap2\n      pop\n        /* \"#utility.yul\":8701:8721   */\n      tag_293\n        /* \"#utility.yul\":8719:8720   */\n      dup4\n        /* \"#utility.yul\":8701:8721   */\n      tag_263\n      jump\t// in\n    tag_293:\n        /* \"#utility.yul\":8696:8721   */\n      swap3\n      pop\n        /* \"#utility.yul\":8855:8856   */\n      dup3\n        /* \"#utility.yul\":8787:8853   */\n      0xffffffffffffffffffffffffffffffffffffffffffffffffffffffffffffffff\n        /* \"#utility.yul\":8783:8857   */\n      sub\n        /* \"#utility.yul\":8780:8781   */\n      dup3\n        /* \"#utility.yul\":8777:8858   */\n      gt\n        /* \"#utility.yul\":8774:8881   */\n      iszero\n      tag_294\n      jumpi\n        /* \"#utility.yul\":8861:8879   */\n      tag_295\n      tag_296\n      jump\t// in\n    tag_295:\n        /* \"#utility.yul\":8774:8881   */\n    tag_294:\n        /* \"#utility.yul\":8905:8906   */\n      dup3\n        /* \"#utility.yul\":8902:8903   */\n      dup3\n        /* \"#utility.yul\":8898:8907   */\n      add\n        /* \"#utility.yul\":8891:8907   */\n      swap1\n      pop\n        /* \"#utility.yul\":8608:8913   */\n      swap3\n      swap2\n      pop\n      pop\n      jump\t// out\n        /* \"#utility.yul\":8919:9110   */\n    tag_155:\n        /* \"#utility.yul\":8959:8963   */\n      0x00\n        /* \"#utility.yul\":8979:8999   */\n      tag_298\n        /* \"#utility.yul\":8997:8998   */\n      dup3\n        /* \"#utility.yul\":8979:8999   */\n      tag_263\n      jump\t// in\n    tag_298:\n        /* \"#utility.yul\":8974:8999   */\n      swap2\n      pop\n        /* \"#utility.yul\":9013:9033   */\n      tag_299\n        /* \"#utility.yul\":9031:9032   */\n      dup4\n        /* \"#utility.yul\":9013:9033   */\n      tag_263\n      jump\t// in\n    tag_299:\n        /* \"#utility.yul\":9008:9033   */\n      swap3\n      pop\n        /* \"#utility.yul\":9052:9053   */\n      dup3\n        /* \"#utility.yul\":9049:9050   */\n      dup3\n        /* \"#utility.yul\":9046:9054   */\n      lt\n        /* \"#utility.yul\":9043:9077   */\n      iszero\n      tag_300\n      jumpi\n        /* \"#utility.yul\":9057:9075   */\n      tag_301\n      tag_296\n      jump\t// in\n    tag_301:\n        /* \"#utility.yul\":9043:9077   */\n    tag_300:\n        /* \"#utility.yul\":9102:9103   */\n      dup3\n        /* \"#utility.yul\":9099:9100   */\n      dup3\n        /* \"#utility.yul\":9095:9104   */\n      sub\n        /* \"#utility.yul\":9087:9104   */\n      swap1\n      pop\n        /* \"#utility.yul\":8919:9110   */\n      swap3\n      swap2\n      pop\n      pop\n      jump\t// out\n        /* \"#utility.yul\":9116:9212   */\n    tag_208:\n        /* \"#utility.yul\":9153:9160   */\n      0x00\n        /* \"#utility.yul\":9182:9206   */\n      tag_303\n        /* \"#utility.yul\":9200:9205   */\n      dup3\n        /* \"#utility.yul\":9182:9206   */\n      tag_304\n      jump\t// in\n    tag_303:\n        /* \"#utility.yul\":9171:9206   */\n      swap1\n      pop\n        /* \"#utility.yul\":9116:9212   */\n      swap2\n      swap1\n      pop\n      jump\t// out\n        /* \"#utility.yul\":9218:9308   */\n    tag_229:\n        /* \"#utility.yul\":9252:9259   */\n      0x00\n        /* \"#utility.yul\":9295:9300   */\n      dup2\n        /* \"#utility.yul\":9288:9301   */\n      iszero\n        /* \"#utility.yul\":9281:9302   */\n      iszero\n        /* \"#utility.yul\":9270:9302   */\n      swap1\n      pop\n        /* \"#utility.yul\":9218:9308   */\n      swap2\n      swap1\n      pop\n      jump\t// out\n        /* \"#utility.yul\":9314:9432   */\n    tag_259:\n        /* \"#utility.yul\":9351:9358   */\n      0x00\n        /* \"#utility.yul\":9391:9425   */\n      0xffffffffffffffffffffffffffffffff\n        /* \"#utility.yul\":9384:9389   */\n      dup3\n        /* \"#utility.yul\":9380:9426   */\n      and\n        /* \"#utility.yul\":9369:9426   */\n      swap1\n      pop\n        /* \"#utility.yul\":9314:9432   */\n      swap2\n      swap1\n      pop\n      jump\t// out\n        /* \"#utility.yul\":9438:9564   */\n    tag_304:\n        /* \"#utility.yul\":9475:9482   */\n      0x00\n        /* \"#utility.yul\":9515:9557   */\n      0xffffffffffffffffffffffffffffffffffffffff\n        /* \"#utility.yul\":9508:9513   */\n      dup3\n        /* \"#utility.yul\":9504:9558   */\n      and\n        /* \"#utility.yul\":9493:9558   */\n      swap1\n      pop\n        /* \"#utility.yul\":9438:9564   */\n      swap2\n      swap1\n      pop\n      jump\t// out\n        /* \"#utility.yul\":9570:9647   */\n    tag_263:\n        /* \"#utility.yul\":9607:9614   */\n      0x00\n        /* \"#utility.yul\":9636:9641   */\n      dup2\n        /* \"#utility.yul\":9625:9641   */\n      swap1\n      pop\n        /* \"#utility.yul\":9570:9647   */\n      swap2\n      swap1\n      pop\n      jump\t// out\n        /* \"#utility.yul\":9653:9833   */\n    tag_296:\n        /* \"#utility.yul\":9701:9778   */\n      0x4e487b7100000000000000000000000000000000000000000000000000000000\n        /* \"#utility.yul\":9698:9699   */\n      0x00\n        /* \"#utility.yul\":9691:9779   */\n      mstore\n        /* \"#utility.yul\":9798:9802   */\n      0x11\n        /* \"#utility.yul\":9795:9796   */\n      0x04\n        /* \"#utility.yul\":9788:9803   */\n      mstore\n        /* \"#utility.yul\":9822:9826   */\n      0x24\n        /* \"#utility.yul\":9819:9820   */\n      0x00\n        /* \"#utility.yul\":9812:9827   */\n      revert\n        /* \"#utility.yul\":9839:10019   */\n    tag_182:\n        /* \"#utility.yul\":9887:9964   */\n      0x4e487b7100000000000000000000000000000000000000000000000000000000\n        /* \"#utility.yul\":9884:9885   */\n      0x00\n        /* \"#utility.yul\":9877:9965   */\n      mstore\n        /* \"#utility.yul\":9984:9988   */\n      0x31\n        /* \"#utility.yul\":9981:9982   */\n      0x04\n        /* \"#utility.yul\":9974:9989   */\n      mstore\n        /* \"#utility.yul\":10008:10012   */\n      0x24\n        /* \"#utility.yul\":10005:10006   */\n      0x00\n        /* \"#utility.yul\":9998:10013   */\n      revert\n        /* \"#utility.yul\":10025:10205   */\n    tag_175:\n        /* \"#utility.yul\":10073:10150   */\n      0x4e487b7100000000000000000000000000000000000000000000000000000000\n        /* \"#utility.yul\":10070:10071   */\n      0x00\n        /* \"#utility.yul\":10063:10151   */\n      mstore\n        /* \"#utility.yul\":10170:10174   */\n      0x32\n        /* \"#utility.yul\":10167:10168   */\n      0x04\n        /* \"#utility.yul\":10160:10175   */\n      mstore\n        /* \"#utility.yul\":10194:10198   */\n      0x24\n        /* \"#utility.yul\":10191:10192   */\n      0x00\n        /* \"#utility.yul\":10184:10199   */\n      revert\n        /* \"#utility.yul\":10334:10451   */\n    tag_196:\n        /* \"#utility.yul\":10443:10444   */\n      0x00\n        /* \"#utility.yul\":10440:10441   */\n      dup1\n        /* \"#utility.yul\":10433:10445   */\n      revert\n        /* \"#utility.yul\":10457:10636   */\n    tag_235:\n        /* \"#utility.yul\":10597:10628   */\n      0x4f6e6c79207374616b65722063616e2063616c6c2066756e6374696f6e000000\n        /* \"#utility.yul\":10593:10594   */\n      0x00\n        /* \"#utility.yul\":10585:10591   */\n      dup3\n        /* \"#utility.yul\":10581:10595   */\n      add\n        /* \"#utility.yul\":10574:10629   */\n      mstore\n        /* \"#utility.yul\":10457:10636   */\n      pop\n      jump\t// out\n        /* \"#utility.yul\":10642:10868   */\n    tag_240:\n        /* \"#utility.yul\":10782:10816   */\n      0x56616c696461746f72207365742068617320726561636865642066756c6c2063\n        /* \"#utility.yul\":10778:10779   */\n      0x00\n        /* \"#utility.yul\":10770:10776   */\n      dup3\n        /* \"#utility.yul\":10766:10780   */\n      add\n        /* \"#utility.yul\":10759:10817   */\n      mstore\n        /* \"#utility.yul\":10851:10860   */\n      0x6170616369747900000000000000000000000000000000000000000000000000\n        /* \"#utility.yul\":10846:10848   */\n      0x20\n        /* \"#utility.yul\":10838:10844   */\n      dup3\n        /* \"#utility.yul\":10834:10849   */\n      add\n        /* \"#utility.yul\":10827:10861   */\n      mstore\n        /* \"#utility.yul\":10642:10868   */\n      pop\n      jump\t// out\n        /* \"#utility.yul\":10874:11042   */\n    tag_245:\n        /* \"#utility.yul\":11014:11034   */\n      0x696e646578206f7574206f662072616e67650000000000000000000000000000\n        /* \"#utility.yul\":11010:11011   */\n      0x00\n        /* \"#utility.yul\":11002:11008   */\n      dup3\n        /* \"#utility.yul\":10998:11012   */\n      add\n        /* \"#utility.yul\":10991:11035   */\n      mstore\n        /* \"#utility.yul\":10874:11042   */\n      pop\n      jump\t// out\n        /* \"#utility.yul\":11048:11224   */\n    tag_250:\n        /* \"#utility.yul\":11188:11216   */\n      0x4f6e6c7920454f412063616e2063616c6c2066756e6374696f6e000000000000\n        /* \"#utility.yul\":11184:11185   */\n      0x00\n        /* \"#utility.yul\":11176:11182   */\n      dup3\n        /* \"#utility.yul\":11172:11186   */\n      add\n        /* \"#utility.yul\":11165:11217   */\n      mstore\n        /* \"#utility.yul\":11048:11224   */\n      pop\n      jump\t// out\n        /* \"#utility.yul\":11230:11481   */\n    tag_255:\n        /* \"#utility.yul\":11370:11404   */\n      0x56616c696461746f72732063616e2774206265206c657373207468616e207468\n        /* \"#utility.yul\":11366:11367   */\n      0x00\n        /* \"#utility.yul\":11358:11364   */\n      dup3\n        /* \"#utility.yul\":11354:11368   */\n      add\n        /* \"#utility.yul\":11347:11405   */\n      mstore\n        /* \"#utility.yul\":11439:11473   */\n      0x65206d696e696d756d2072657175697265642076616c696461746f72206e756d\n        /* \"#utility.yul\":11434:11436   */\n      0x20\n        /* \"#utility.yul\":11426:11432   */\n      dup3\n        /* \"#utility.yul\":11422:11437   */\n      add\n        /* \"#utility.yul\":11415:11474   */\n      mstore\n        /* \"#utility.yul\":11230:11481   */\n      pop\n      jump\t// out\n        /* \"#utility.yul\":11487:11609   */\n    tag_188:\n        /* \"#utility.yul\":11560:11584   */\n      tag_321\n        /* \"#utility.yul\":11578:11583   */\n      dup2\n        /* \"#utility.yul\":11560:11584   */\n      tag_208\n      jump\t// in\n    tag_321:\n        /* \"#utility.yul\":11553:11558   */\n      dup2\n        /* \"#utility.yul\":11550:11585   */\n      eq\n        /* \"#utility.yul\":11540:11603   */\n      tag_322\n      jumpi\n        /* \"#utility.yul\":11599:11600   */\n      0x00\n        /* \"#utility.yul\":11596:11597   */\n      dup1\n        /* \"#utility.yul\":11589:11601   */\n      revert\n        /* \"#utility.yul\":11540:11603   */\n    tag_322:\n        /* \"#utility.yul\":11487:11609   */\n      pop\n      jump\t// out\n        /* \"#utility.yul\":11615:11737   */\n    tag_192:\n        /* \"#utility.yul\":11688:11712   */\n      tag_324\n        /* \"#utility.yul\":11706:11711   */\n      dup2\n        /* \"#utility.yul\":11688:11712   */\n      tag_263\n      jump\t// in\n    tag_324:\n        /* \"#utility.yul\":11681:11686   */\n      dup2\n        /* \"#utility.yul\":11678:11713   */\n      eq\n        /* \"#utility.yul\":11668:11731   */\n      tag_325\n      jumpi\n        /* \"#utility.yul\":11727:11728   */\n      0x00\n        /* \"#utility.yul\":11724:11725   */\n      dup1\n        /* \"#utility.yul\":11717:11729   */\n      revert\n        /* \"#utility.yul\":11668:11731   */\n    tag_325:\n        /* \"#utility.yul\":11615:11737   */\n      pop\n      jump\t// out\n\n    auxdata: 0xa2646970667358221220c949ef4823e59cdb17e988b840257155b11b639c193ffe21e98b1afe6c52b96264736f6c63430008070033\n}\n",
				"bytecode": {
					"linkReferences": {},
					"object": "60806040523480156200001157600080fd5b506040516200173c3803806200173c8339818101604052810190620000379190620000aa565b808211156200007d576040517f08c379a0000000000000000000000000000000000000000000000000000000008152600401620000749062000118565b60405180910390fd5b81600581905550806006819055505050620001c3565b600081519050620000a481620001a9565b92915050565b60008060408385031215620000c457620000c362000155565b5b6000620000d48582860162000093565b9250506020620000e78582860162000093565b9150509250929050565b6000620001006040836200013a565b91506200010d826200015a565b604082019050919050565b600060208201905081810360008301526200013381620000f1565b9050919050565b600082825260208201905092915050565b6000819050919050565b600080fd5b7f4d696e2076616c696461746f7273206e756d2063616e206e6f7420626520677260008201527f6561746572207468616e206d6178206e756d206f662076616c696461746f7273602082015250565b620001b4816200014b565b8114620001c057600080fd5b50565b61156980620001d36000396000f3fe6080604052600436106100f75760003560e01c80637dceceb81161008a578063e387a7ed11610059578063e387a7ed14610381578063e804fbf6146103ac578063f90ecacc146103d7578063facd743b1461041457610165565b80637dceceb8146102c3578063af6da36e14610300578063c795c0771461032b578063ca1e78191461035657610165565b8063373d6132116100c6578063373d6132146102385780633a4b66f114610263578063714ff4251461026d5780637a6eea371461029857610165565b806302b751991461016a578063065ae171146101a75780632367f6b5146101e45780632def66201461022157610165565b366101655761011b3373ffffffffffffffffffffffffffffffffffffffff16610451565b1561015b576040517f08c379a0000000000000000000000000000000000000000000000000000000008152600401610152906111ac565b60405180910390fd5b610163610474565b005b600080fd5b34801561017657600080fd5b50610191600480360381019061018c9190610f2a565b61054b565b60405161019e9190611207565b60405180910390f35b3480156101b357600080fd5b506101ce60048036038101906101c99190610f2a565b610563565b6040516101db9190611131565b60405180910390f35b3480156101f057600080fd5b5061020b60048036038101906102069190610f2a565b610583565b6040516102189190611207565b60405180910390f35b34801561022d57600080fd5b506102366105cc565b005b34801561024457600080fd5b5061024d6106b7565b60405161025a9190611207565b60405180910390f35b61026b6106c1565b005b34801561027957600080fd5b5061028261072a565b60405161028f9190611207565b60405180910390f35b3480156102a457600080fd5b506102ad610734565b6040516102ba91906111ec565b60405180910390f35b3480156102cf57600080fd5b506102ea60048036038101906102e59190610f2a565b61073e565b6040516102f79190611207565b60405180910390f35b34801561030c57600080fd5b50610315610756565b6040516103229190611207565b60405180910390f35b34801561033757600080fd5b5061034061075c565b60405161034d9190611207565b60405180910390f35b34801561036257600080fd5b5061036b610762565b604051610378919061110f565b60405180910390f35b34801561038d57600080fd5b506103966107f0565b6040516103a39190611207565b60405180910390f35b3480156103b857600080fd5b506103c16107f6565b6040516103ce9190611207565b60405180910390f35b3480156103e357600080fd5b506103fe60048036038101906103f99190610f57565b610800565b60405161040b91906110f4565b60405180910390f35b34801561042057600080fd5b5061043b60048036038101906104369190610f2a565b61083f565b6040516104489190611131565b60405180910390f35b6000808273ffffffffffffffffffffffffffffffffffffffff163b119050919050565b3460046000828254610486919061126c565b9250508190555034600260003373ffffffffffffffffffffffffffffffffffffffff1673ffffffffffffffffffffffffffffffffffffffff16815260200190815260200160002060008282546104dc919061126c565b925050819055506104ec33610895565b156104fb576104fa3361090b565b5b3373ffffffffffffffffffffffffffffffffffffffff167f9e71bc8eea02a63969f509818f2dafb9254532904319f9dbda79b67bd34a5f3d346040516105419190611207565b60405180910390a2565b60036020528060005260406000206000915090505481565b60016020528060005260406000206000915054906101000a900460ff1681565b6000600260008373ffffffffffffffffffffffffffffffffffffffff1673ffffffffffffffffffffffffffffffffffffffff168152602001908152602001600020549050919050565b6105eb3373ffffffffffffffffffffffffffffffffffffffff16610451565b1561062b576040517f08c379a0000000000000000000000000000000000000000000000000000000008152600401610622906111ac565b60405180910390fd5b6000600260003373ffffffffffffffffffffffffffffffffffffffff1673ffffffffffffffffffffffffffffffffffffffff16815260200190815260200160002054116106ad576040517f08c379a00000000000000000000000000000000000000000000000000000000081526004016106a49061114c565b60405180910390fd5b6106b5610a5a565b565b6000600454905090565b6106e03373ffffffffffffffffffffffffffffffffffffffff16610451565b15610720576040517f08c379a0000000000000000000000000000000000000000000000000000000008152600401610717906111ac565b60405180910390fd5b610728610474565b565b6000600554905090565b655af3107a400081565b60026020528060005260406000206000915090505481565b60065481565b60055481565b606060008054806020026020016040519081016040528092919081815260200182805480156107e657602002820191906000526020600020905b8160009054906101000a900473ffffffffffffffffffffffffffffffffffffffff1673ffffffffffffffffffffffffffffffffffffffff168152602001906001019080831161079c575b5050505050905090565b60045481565b6000600654905090565b6000818154811061081057600080fd5b906000526020600020016000915054906101000a900473ffffffffffffffffffffffffffffffffffffffff1681565b6000600160008373ffffffffffffffffffffffffffffffffffffffff1673ffffffffffffffffffffffffffffffffffffffff16815260200190815260200160002060009054906101000a900460ff169050919050565b60006108a082610bac565b1580156109045750655af3107a40006fffffffffffffffffffffffffffffffff16600260008473ffffffffffffffffffffffffffffffffffffffff1673ffffffffffffffffffffffffffffffffffffffff1681526020019081526020016000205410155b9050919050565b60065460008054905010610954576040517f08c379a000000000000000000000000000000000000000000000000000000000815260040161094b9061116c565b60405180910390fd5b60018060008373ffffffffffffffffffffffffffffffffffffffff1673ffffffffffffffffffffffffffffffffffffffff16815260200190815260200160002060006101000a81548160ff021916908315150217905550600080549050600360008373ffffffffffffffffffffffffffffffffffffffff1673ffffffffffffffffffffffffffffffffffffffff168152602001908152602001600020819055506000819080600181540180825580915050600190039060005260206000200160009091909190916101000a81548173ffffffffffffffffffffffffffffffffffffffff021916908373ffffffffffffffffffffffffffffffffffffffff16021790555050565b6000600260003373ffffffffffffffffffffffffffffffffffffffff1673ffffffffffffffffffffffffffffffffffffffff1681526020019081526020016000205490506000600260003373ffffffffffffffffffffffffffffffffffffffff1673ffffffffffffffffffffffffffffffffffffffff168152602001908152602001600020819055508060046000828254610af591906112c2565b92505081905550610b0533610bac565b15610b1457610b1333610c02565b5b3373ffffffffffffffffffffffffffffffffffffffff166108fc829081150290604051600060405180830381858888f19350505050158015610b5a573d6000803e3d6000fd5b503373ffffffffffffffffffffffffffffffffffffffff167f0f5bb82176feb1b5e747e28471aa92156a04d9f3ab9f45f28e2d704232b93f7582604051610ba19190611207565b60405180910390a250565b6000600160008373ffffffffffffffffffffffffffffffffffffffff1673ffffffffffffffffffffffffffffffffffffffff16815260200190815260200160002060009054906101000a900460ff169050919050565b60055460008054905011610c4b576040517f08c379a0000000000000000000000000000000000000000000000000000000008152600401610c42906111cc565b60405180910390fd5b600080549050600360008373ffffffffffffffffffffffffffffffffffffffff1673ffffffffffffffffffffffffffffffffffffffff1681526020019081526020016000205410610cd1576040517f08c379a0000000000000000000000000000000000000000000000000000000008152600401610cc89061118c565b60405180910390fd5b6000600360008373ffffffffffffffffffffffffffffffffffffffff1673ffffffffffffffffffffffffffffffffffffffff16815260200190815260200160002054905060006001600080549050610d2991906112c2565b9050808214610e17576000808281548110610d4757610d466113b8565b5b9060005260206000200160009054906101000a900473ffffffffffffffffffffffffffffffffffffffff1690508060008481548110610d8957610d886113b8565b5b9060005260206000200160006101000a81548173ffffffffffffffffffffffffffffffffffffffff021916908373ffffffffffffffffffffffffffffffffffffffff16021790555082600360008373ffffffffffffffffffffffffffffffffffffffff1673ffffffffffffffffffffffffffffffffffffffff16815260200190815260200160002081905550505b6000600160008573ffffffffffffffffffffffffffffffffffffffff1673ffffffffffffffffffffffffffffffffffffffff16815260200190815260200160002060006101000a81548160ff0219169083151502179055506000600360008573ffffffffffffffffffffffffffffffffffffffff1673ffffffffffffffffffffffffffffffffffffffff168152602001908152602001600020819055506000805480610ec657610ec5611389565b5b6001900381819060005260206000200160006101000a81549073ffffffffffffffffffffffffffffffffffffffff02191690559055505050565b600081359050610f0f81611505565b92915050565b600081359050610f248161151c565b92915050565b600060208284031215610f4057610f3f6113e7565b5b6000610f4e84828501610f00565b91505092915050565b600060208284031215610f6d57610f6c6113e7565b5b6000610f7b84828501610f15565b91505092915050565b6000610f908383610f9c565b60208301905092915050565b610fa5816112f6565b82525050565b610fb4816112f6565b82525050565b6000610fc582611232565b610fcf818561124a565b9350610fda83611222565b8060005b8381101561100b578151610ff28882610f84565b9750610ffd8361123d565b925050600181019050610fde565b5085935050505092915050565b61102181611308565b82525050565b6000611034601d8361125b565b915061103f826113ec565b602082019050919050565b600061105760278361125b565b915061106282611415565b604082019050919050565b600061107a60128361125b565b915061108582611464565b602082019050919050565b600061109d601a8361125b565b91506110a88261148d565b602082019050919050565b60006110c060408361125b565b91506110cb826114b6565b604082019050919050565b6110df81611314565b82525050565b6110ee81611350565b82525050565b60006020820190506111096000830184610fab565b92915050565b600060208201905081810360008301526111298184610fba565b905092915050565b60006020820190506111466000830184611018565b92915050565b6000602082019050818103600083015261116581611027565b9050919050565b600060208201905081810360008301526111858161104a565b9050919050565b600060208201905081810360008301526111a58161106d565b9050919050565b600060208201905081810360008301526111c581611090565b9050919050565b600060208201905081810360008301526111e5816110b3565b9050919050565b600060208201905061120160008301846110d6565b92915050565b600060208201905061121c60008301846110e5565b92915050565b6000819050602082019050919050565b600081519050919050565b6000602082019050919050565b600082825260208201905092915050565b600082825260208201905092915050565b600061127782611350565b915061128283611350565b9250827fffffffffffffffffffffffffffffffffffffffffffffffffffffffffffffffff038211156112b7576112b661135a565b5b828201905092915050565b60006112cd82611350565b91506112d883611350565b9250828210156112eb576112ea61135a565b5b828203905092915050565b600061130182611330565b9050919050565b60008115159050919050565b60006fffffffffffffffffffffffffffffffff82169050919050565b600073ffffffffffffffffffffffffffffffffffffffff82169050919050565b6000819050919050565b7f4e487b7100000000000000000000000000000000000000000000000000000000600052601160045260246000fd5b7f4e487b7100000000000000000000000000000000000000000000000000000000600052603160045260246000fd5b7f4e487b7100000000000000000000000000000000000000000000000000000000600052603260045260246000fd5b600080fd5b7f4f6e6c79207374616b65722063616e2063616c6c2066756e6374696f6e000000600082015250565b7f56616c696461746f72207365742068617320726561636865642066756c6c206360008201527f6170616369747900000000000000000000000000000000000000000000000000602082015250565b7f696e646578206f7574206f662072616e67650000000000000000000000000000600082015250565b7f4f6e6c7920454f412063616e2063616c6c2066756e6374696f6e000000000000600082015250565b7f56616c696461746f72732063616e2774206265206c657373207468616e20746860008201527f65206d696e696d756d2072657175697265642076616c696461746f72206e756d602082015250565b61150e816112f6565b811461151957600080fd5b50565b61152581611350565b811461153057600080fd5b5056fea2646970667358221220c949ef4823e59cdb17e988b840257155b11b639c193ffe21e98b1afe6c52b96264736f6c63430008070033",
					"opcodes": "PUSH1 0x80 PUSH1 0x40 MSTORE CALLVALUE DUP1 ISZERO PUSH3 0x11 JUMPI PUSH1 0x0 DUP1 REVERT JUMPDEST POP PUSH1 0x40 MLOAD PUSH3 0x173C CODESIZE SUB DUP1 PUSH3 0x173C DUP4 CODECOPY DUP2 DUP2 ADD PUSH1 0x40 MSTORE DUP2 ADD SWAP1 PUSH3 0x37 SWAP2 SWAP1 PUSH3 0xAA JUMP JUMPDEST DUP1 DUP3 GT ISZERO PUSH3 0x7D JUMPI PUSH1 0x40 MLOAD PUSH32 0x8C379A000000000000000000000000000000000000000000000000000000000 DUP2 MSTORE PUSH1 0x4 ADD PUSH3 0x74 SWAP1 PUSH3 0x118 JUMP JUMPDEST PUSH1 0x40 MLOAD DUP1 SWAP2 SUB SWAP1 REVERT JUMPDEST DUP2 PUSH1 0x5 DUP2 SWAP1 SSTORE POP DUP1 PUSH1 0x6 DUP2 SWAP1 SSTORE POP POP POP PUSH3 0x1C3 JUMP JUMPDEST PUSH1 0x0 DUP2 MLOAD SWAP1 POP PUSH3 0xA4 DUP2 PUSH3 0x1A9 JUMP JUMPDEST SWAP3 SWAP2 POP POP JUMP JUMPDEST PUSH1 0x0 DUP1 PUSH1 0x40 DUP4 DUP6 SUB SLT ISZERO PUSH3 0xC4 JUMPI PUSH3 0xC3 PUSH3 0x155 JUMP JUMPDEST JUMPDEST PUSH1 0x0 PUSH3 0xD4 DUP6 DUP3 DUP7 ADD PUSH3 0x93 JUMP JUMPDEST SWAP3 POP POP PUSH1 0x20 PUSH3 0xE7 DUP6 DUP3 DUP7 ADD PUSH3 0x93 JUMP JUMPDEST SWAP2 POP POP SWAP3 POP SWAP3 SWAP1 POP JUMP JUMPDEST PUSH1 0x0 PUSH3 0x100 PUSH1 0x40 DUP4 PUSH3 0x13A JUMP JUMPDEST SWAP2 POP PUSH3 0x10D DUP3 PUSH3 0x15A JUMP JUMPDEST PUSH1 0x40 DUP3 ADD SWAP1 POP SWAP2 SWAP1 POP JUMP JUMPDEST PUSH1 0x0 PUSH1 0x20 DUP3 ADD SWAP1 POP DUP2 DUP2 SUB PUSH1 0x0 DUP4 ADD MSTORE PUSH3 0x133 DUP2 PUSH3 0xF1 JUMP JUMPDEST SWAP1 POP SWAP2 SWAP1 POP JUMP JUMPDEST PUSH1 0x0 DUP3 DUP3 MSTORE PUSH1 0x20 DUP3 ADD SWAP1 POP SWAP3 SWAP2 POP POP JUMP JUMPDEST PUSH1 0x0 DUP2 SWAP1 POP SWAP2 SWAP1 POP JUMP JUMPDEST PUSH1 0x0 DUP1 REVERT JUMPDEST PUSH32 0x4D696E2076616C696461746F7273206E756D2063616E206E6F74206265206772 PUSH1 0x0 DUP3 ADD MSTORE PUSH32 0x6561746572207468616E206D6178206E756D206F662076616C696461746F7273 PUSH1 0x20 DUP3 ADD MSTORE POP JUMP JUMPDEST PUSH3 0x1B4 DUP2 PUSH3 0x14B JUMP JUMPDEST DUP2 EQ PUSH3 0x1C0 JUMPI PUSH1 0x0 DUP1 REVERT JUMPDEST POP JUMP JUMPDEST PUSH2 0x1569 DUP1 PUSH3 0x1D3 PUSH1 0x0 CODECOPY PUSH1 0x0 RETURN INVALID PUSH1 0x80 PUSH1 0x40 MSTORE PUSH1 0x4 CALLDATASIZE LT PUSH2 0xF7 JUMPI PUSH1 0x0 CALLDATALOAD PUSH1 0xE0 SHR DUP1 PUSH4 0x7DCECEB8 GT PUSH2 0x8A JUMPI DUP1 PUSH4 0xE387A7ED GT PUSH2 0x59 JUMPI DUP1 PUSH4 0xE387A7ED EQ PUSH2 0x381 JUMPI DUP1 PUSH4 0xE804FBF6 EQ PUSH2 0x3AC JUMPI DUP1 PUSH4 0xF90ECACC EQ PUSH2 0x3D7 JUMPI DUP1 PUSH4 0xFACD743B EQ PUSH2 0x414 JUMPI PUSH2 0x165 JUMP JUMPDEST DUP1 PUSH4 0x7DCECEB8 EQ PUSH2 0x2C3 JUMPI DUP1 PUSH4 0xAF6DA36E EQ PUSH2 0x300 JUMPI DUP1 PUSH4 0xC795C077 EQ PUSH2 0x32B JUMPI DUP1 PUSH4 0xCA1E7819 EQ PUSH2 0x356 JUMPI PUSH2 0x165 JUMP JUMPDEST DUP1 PUSH4 0x373D6132 GT PUSH2 0xC6 JUMPI DUP1 PUSH4 0x373D6132 EQ PUSH2 0x238 JUMPI DUP1 PUSH4 0x3A4B66F1 EQ PUSH2 0x263 JUMPI DUP1 PUSH4 0x714FF425 EQ PUSH2 0x26D JUMPI DUP1 PUSH4 0x7A6EEA37 EQ PUSH2 0x298 JUMPI PUSH2 0x165 JUMP JUMPDEST DUP1 PUSH4 0x2B75199 EQ PUSH2 0x16A JUMPI DUP1 PUSH4 0x65AE171 EQ PUSH2 0x1A7 JUMPI DUP1 PUSH4 0x2367F6B5 EQ PUSH2 0x1E4 JUMPI DUP1 PUSH4 0x2DEF6620 EQ PUSH2 0x221 JUMPI PUSH2 0x165 JUMP JUMPDEST CALLDATASIZE PUSH2 0x165 JUMPI PUSH2 0x11B CALLER PUSH20 0xFFFFFFFFFFFFFFFFFFFFFFFFFFFFFFFFFFFFFFFF AND PUSH2 0x451 JUMP JUMPDEST ISZERO PUSH2 0x15B JUMPI PUSH1 0x40 MLOAD PUSH32 0x8C379A000000000000000000000000000000000000000000000000000000000 DUP2 MSTORE PUSH1 0x4 ADD PUSH2 0x152 SWAP1 PUSH2 0x11AC JUMP JUMPDEST PUSH1 0x40 MLOAD DUP1 SWAP2 SUB SWAP1 REVERT JUMPDEST PUSH2 0x163 PUSH2 0x474 JUMP JUMPDEST STOP JUMPDEST PUSH1 0x0 DUP1 REVERT JUMPDEST CALLVALUE DUP1 ISZERO PUSH2 0x176 JUMPI PUSH1 0x0 DUP1 REVERT JUMPDEST POP PUSH2 0x191 PUSH1 0x4 DUP1 CALLDATASIZE SUB DUP2 ADD SWAP1 PUSH2 0x18C SWAP2 SWAP1 PUSH2 0xF2A JUMP JUMPDEST PUSH2 0x54B JUMP JUMPDEST PUSH1 0x40 MLOAD PUSH2 0x19E SWAP2 SWAP1 PUSH2 0x1207 JUMP JUMPDEST PUSH1 0x40 MLOAD DUP1 SWAP2 SUB SWAP1 RETURN JUMPDEST CALLVALUE DUP1 ISZERO PUSH2 0x1B3 JUMPI PUSH1 0x0 DUP1 REVERT JUMPDEST POP PUSH2 0x1CE PUSH1 0x4 DUP1 CALLDATASIZE SUB DUP2 ADD SWAP1 PUSH2 0x1C9 SWAP2 SWAP1 PUSH2 0xF2A JUMP JUMPDEST PUSH2 0x563 JUMP JUMPDEST PUSH1 0x40 MLOAD PUSH2 0x1DB SWAP2 SWAP1 PUSH2 0x1131 JUMP JUMPDEST PUSH1 0x40 MLOAD DUP1 SWAP2 SUB SWAP1 RETURN JUMPDEST CALLVALUE DUP1 ISZERO PUSH2 0x1F0 JUMPI PUSH1 0x0 DUP1 REVERT JUMPDEST POP PUSH2 0x20B PUSH1 0x4 DUP1 CALLDATASIZE SUB DUP2 ADD SWAP1 PUSH2 0x206 SWAP2 SWAP1 PUSH2 0xF2A JUMP JUMPDEST PUSH2 0x583 JUMP JUMPDEST PUSH1 0x40 MLOAD PUSH2 0x218 SWAP2 SWAP1 PUSH2 0x1207 JUMP JUMPDEST PUSH1 0x40 MLOAD DUP1 SWAP2 SUB SWAP1 RETURN JUMPDEST CALLVALUE DUP1 ISZERO PUSH2 0x22D JUMPI PUSH1 0x0 DUP1 REVERT JUMPDEST POP PUSH2 0x236 PUSH2 0x5CC JUMP JUMPDEST STOP JUMPDEST CALLVALUE DUP1 ISZERO PUSH2 0x244 JUMPI PUSH1 0x0 DUP1 REVERT JUMPDEST POP PUSH2 0x24D PUSH2 0x6B7 JUMP JUMPDEST PUSH1 0x40 MLOAD PUSH2 0x25A SWAP2 SWAP1 PUSH2 0x1207 JUMP JUMPDEST PUSH1 0x40 MLOAD DUP1 SWAP2 SUB SWAP1 RETURN JUMPDEST PUSH2 0x26B PUSH2 0x6C1 JUMP JUMPDEST STOP JUMPDEST CALLVALUE DUP1 ISZERO PUSH2 0x279 JUMPI PUSH1 0x0 DUP1 REVERT JUMPDEST POP PUSH2 0x282 PUSH2 0x72A JUMP JUMPDEST PUSH1 0x40 MLOAD PUSH2 0x28F SWAP2 SWAP1 PUSH2 0x1207 JUMP JUMPDEST PUSH1 0x40 MLOAD DUP1 SWAP2 SUB SWAP1 RETURN JUMPDEST CALLVALUE DUP1 ISZERO PUSH2 0x2A4 JUMPI PUSH1 0x0 DUP1 REVERT JUMPDEST POP PUSH2 0x2AD PUSH2 0x734 JUMP JUMPDEST PUSH1 0x40 MLOAD PUSH2 0x2BA SWAP2 SWAP1 PUSH2 0x11EC JUMP JUMPDEST PUSH1 0x40 MLOAD DUP1 SWAP2 SUB SWAP1 RETURN JUMPDEST CALLVALUE DUP1 ISZERO PUSH2 0x2CF JUMPI PUSH1 0x0 DUP1 REVERT JUMPDEST POP PUSH2 0x2EA PUSH1 0x4 DUP1 CALLDATASIZE SUB DUP2 ADD SWAP1 PUSH2 0x2E5 SWAP2 SWAP1 PUSH2 0xF2A JUMP JUMPDEST PUSH2 0x73E JUMP JUMPDEST PUSH1 0x40 MLOAD PUSH2 0x2F7 SWAP2 SWAP1 PUSH2 0x1207 JUMP JUMPDEST PUSH1 0x40 MLOAD DUP1 SWAP2 SUB SWAP1 RETURN JUMPDEST CALLVALUE DUP1 ISZERO PUSH2 0x30C JUMPI PUSH1 0x0 DUP1 REVERT JUMPDEST POP PUSH2 0x315 PUSH2 0x756 JUMP JUMPDEST PUSH1 0x40 MLOAD PUSH2 0x322 SWAP2 SWAP1 PUSH2 0x1207 JUMP JUMPDEST PUSH1 0x40 MLOAD DUP1 SWAP2 SUB SWAP1 RETURN JUMPDEST CALLVALUE DUP1 ISZERO PUSH2 0x337 JUMPI PUSH1 0x0 DUP1 REVERT JUMPDEST POP PUSH2 0x340 PUSH2 0x75C JUMP JUMPDEST PUSH1 0x40 MLOAD PUSH2 0x34D SWAP2 SWAP1 PUSH2 0x1207 JUMP JUMPDEST PUSH1 0x40 MLOAD DUP1 SWAP2 SUB SWAP1 RETURN JUMPDEST CALLVALUE DUP1 ISZERO PUSH2 0x362 JUMPI PUSH1 0x0 DUP1 REVERT JUMPDEST POP PUSH2 0x36B PUSH2 0x762 JUMP JUMPDEST PUSH1 0x40 MLOAD PUSH2 0x378 SWAP2 SWAP1 PUSH2 0x110F JUMP JUMPDEST PUSH1 0x40 MLOAD DUP1 SWAP2 SUB SWAP1 RETURN JUMPDEST CALLVALUE DUP1 ISZERO PUSH2 0x38D JUMPI PUSH1 0x0 DUP1 REVERT JUMPDEST POP PUSH2 0x396 PUSH2 0x7F0 JUMP JUMPDEST PUSH1 0x40 MLOAD PUSH2 0x3A3 SWAP2 SWAP1 PUSH2 0x1207 JUMP JUMPDEST PUSH1 0x40 MLOAD DUP1 SWAP2 SUB SWAP1 RETURN JUMPDEST CALLVALUE DUP1 ISZERO PUSH2 0x3B8 JUMPI PUSH1 0x0 DUP1 REVERT JUMPDEST POP PUSH2 0x3C1 PUSH2 0x7F6 JUMP JUMPDEST PUSH1 0x40 MLOAD PUSH2 0x3CE SWAP2 SWAP1 PUSH2 0x1207 JUMP JUMPDEST PUSH1 0x40 MLOAD DUP1 SWAP2 SUB SWAP1 RETURN JUMPDEST CALLVALUE DUP1 ISZERO PUSH2 0x3E3 JUMPI PUSH1 0x0 DUP1 REVERT JUMPDEST POP PUSH2 0x3FE PUSH1 0x4 DUP1 CALLDATASIZE SUB DUP2 ADD SWAP1 PUSH2 0x3F9 SWAP2 SWAP1 PUSH2 0xF57 JUMP JUMPDEST PUSH2 0x800 JUMP JUMPDEST PUSH1 0x40 MLOAD PUSH2 0x40B SWAP2 SWAP1 PUSH2 0x10F4 JUMP JUMPDEST PUSH1 0x40 MLOAD DUP1 SWAP2 SUB SWAP1 RETURN JUMPDEST CALLVALUE DUP1 ISZERO PUSH2 0x420 JUMPI PUSH1 0x0 DUP1 REVERT JUMPDEST POP PUSH2 0x43B PUSH1 0x4 DUP1 CALLDATASIZE SUB DUP2 ADD SWAP1 PUSH2 0x436 SWAP2 SWAP1 PUSH2 0xF2A JUMP JUMPDEST PUSH2 0x83F JUMP JUMPDEST PUSH1 0x40 MLOAD PUSH2 0x448 SWAP2 SWAP1 PUSH2 0x1131 JUMP JUMPDEST PUSH1 0x40 MLOAD DUP1 SWAP2 SUB SWAP1 RETURN JUMPDEST PUSH1 0x0 DUP1 DUP3 PUSH20 0xFFFFFFFFFFFFFFFFFFFFFFFFFFFFFFFFFFFFFFFF AND EXTCODESIZE GT SWAP1 POP SWAP2 SWAP1 POP JUMP JUMPDEST CALLVALUE PUSH1 0x4 PUSH1 0x0 DUP3 DUP3 SLOAD PUSH2 0x486 SWAP2 SWAP1 PUSH2 0x126C JUMP JUMPDEST SWAP3 POP POP DUP2 SWAP1 SSTORE POP CALLVALUE PUSH1 0x2 PUSH1 0x0 CALLER PUSH20 0xFFFFFFFFFFFFFFFFFFFFFFFFFFFFFFFFFFFFFFFF AND PUSH20 0xFFFFFFFFFFFFFFFFFFFFFFFFFFFFFFFFFFFFFFFF AND DUP2 MSTORE PUSH1 0x20 ADD SWAP1 DUP2 MSTORE PUSH1 0x20 ADD PUSH1 0x0 KECCAK256 PUSH1 0x0 DUP3 DUP3 SLOAD PUSH2 0x4DC SWAP2 SWAP1 PUSH2 0x126C JUMP JUMPDEST SWAP3 POP POP DUP2 SWAP1 SSTORE POP PUSH2 0x4EC CALLER PUSH2 0x895 JUMP JUMPDEST ISZERO PUSH2 0x4FB JUMPI PUSH2 0x4FA CALLER PUSH2 0x90B JUMP JUMPDEST JUMPDEST CALLER PUSH20 0xFFFFFFFFFFFFFFFFFFFFFFFFFFFFFFFFFFFFFFFF AND PUSH32 0x9E71BC8EEA02A63969F509818F2DAFB9254532904319F9DBDA79B67BD34A5F3D CALLVALUE PUSH1 0x40 MLOAD PUSH2 0x541 SWAP2 SWAP1 PUSH2 0x1207 JUMP JUMPDEST PUSH1 0x40 MLOAD DUP1 SWAP2 SUB SWAP1 LOG2 JUMP JUMPDEST PUSH1 0x3 PUSH1 0x20 MSTORE DUP1 PUSH1 0x0 MSTORE PUSH1 0x40 PUSH1 0x0 KECCAK256 PUSH1 0x0 SWAP2 POP SWAP1 POP SLOAD DUP2 JUMP JUMPDEST PUSH1 0x1 PUSH1 0x20 MSTORE DUP1 PUSH1 0x0 MSTORE PUSH1 0x40 PUSH1 0x0 KECCAK256 PUSH1 0x0 SWAP2 POP SLOAD SWAP1 PUSH2 0x100 EXP SWAP1 DIV PUSH1 0xFF AND DUP2 JUMP JUMPDEST PUSH1 0x0 PUSH1 0x2 PUSH1 0x0 DUP4 PUSH20 0xFFFFFFFFFFFFFFFFFFFFFFFFFFFFFFFFFFFFFFFF AND PUSH20 0xFFFFFFFFFFFFFFFFFFFFFFFFFFFFFFFFFFFFFFFF AND DUP2 MSTORE PUSH1 0x20 ADD SWAP1 DUP2 MSTORE PUSH1 0x20 ADD PUSH1 0x0 KECCAK256 SLOAD SWAP1 POP SWAP2 SWAP1 POP JUMP JUMPDEST PUSH2 0x5EB CALLER PUSH20 0xFFFFFFFFFFFFFFFFFFFFFFFFFFFFFFFFFFFFFFFF AND PUSH2 0x451 JUMP JUMPDEST ISZERO PUSH2 0x62B JUMPI PUSH1 0x40 MLOAD PUSH32 0x8C379A000000000000000000000000000000000000000000000000000000000 DUP2 MSTORE PUSH1 0x4 ADD PUSH2 0x622 SWAP1 PUSH2 0x11AC JUMP JUMPDEST PUSH1 0x40 MLOAD DUP1 SWAP2 SUB SWAP1 REVERT JUMPDEST PUSH1 0x0 PUSH1 0x2 PUSH1 0x0 CALLER PUSH20 0xFFFFFFFFFFFFFFFFFFFFFFFFFFFFFFFFFFFFFFFF AND PUSH20 0xFFFFFFFFFFFFFFFFFFFFFFFFFFFFFFFFFFFFFFFF AND DUP2 MSTORE PUSH1 0x20 ADD SWAP1 DUP2 MSTORE PUSH1 0x20 ADD PUSH1 0x0 KECCAK256 SLOAD GT PUSH2 0x6AD JUMPI PUSH1 0x40 MLOAD PUSH32 0x8C379A000000000000000000000000000000000000000000000000000000000 DUP2 MSTORE PUSH1 0x4 ADD PUSH2 0x6A4 SWAP1 PUSH2 0x114C JUMP JUMPDEST PUSH1 0x40 MLOAD DUP1 SWAP2 SUB SWAP1 REVERT JUMPDEST PUSH2 0x6B5 PUSH2 0xA5A JUMP JUMPDEST JUMP JUMPDEST PUSH1 0x0 PUSH1 0x4 SLOAD SWAP1 POP SWAP1 JUMP JUMPDEST PUSH2 0x6E0 CALLER PUSH20 0xFFFFFFFFFFFFFFFFFFFFFFFFFFFFFFFFFFFFFFFF AND PUSH2 0x451 JUMP JUMPDEST ISZERO PUSH2 0x720 JUMPI PUSH1 0x40 MLOAD PUSH32 0x8C379A000000000000000000000000000000000000000000000000000000000 DUP2 MSTORE PUSH1 0x4 ADD PUSH2 0x717 SWAP1 PUSH2 0x11AC JUMP JUMPDEST PUSH1 0x40 MLOAD DUP1 SWAP2 SUB SWAP1 REVERT JUMPDEST PUSH2 0x728 PUSH2 0x474 JUMP JUMPDEST JUMP JUMPDEST PUSH1 0x0 PUSH1 0x5 SLOAD SWAP1 POP SWAP1 JUMP JUMPDEST PUSH6 0x5AF3107A4000 DUP2 JUMP JUMPDEST PUSH1 0x2 PUSH1 0x20 MSTORE DUP1 PUSH1 0x0 MSTORE PUSH1 0x40 PUSH1 0x0 KECCAK256 PUSH1 0x0 SWAP2 POP SWAP1 POP SLOAD DUP2 JUMP JUMPDEST PUSH1 0x6 SLOAD DUP2 JUMP JUMPDEST PUSH1 0x5 SLOAD DUP2 JUMP JUMPDEST PUSH1 0x60 PUSH1 0x0 DUP1 SLOAD DUP1 PUSH1 0x20 MUL PUSH1 0x20 ADD PUSH1 0x40 MLOAD SWAP1 DUP2 ADD PUSH1 0x40 MSTORE DUP1 SWAP3 SWAP2 SWAP1 DUP2 DUP2 MSTORE PUSH1 0x20 ADD DUP3 DUP1 SLOAD DUP1 ISZERO PUSH2 0x7E6 JUMPI PUSH1 0x20 MUL DUP3 ADD SWAP2 SWAP1 PUSH1 0x0 MSTORE PUSH1 0x20 PUSH1 0x0 KECCAK256 SWAP1 JUMPDEST DUP2 PUSH1 0x0 SWAP1 SLOAD SWAP1 PUSH2 0x100 EXP SWAP1 DIV PUSH20 0xFFFFFFFFFFFFFFFFFFFFFFFFFFFFFFFFFFFFFFFF AND PUSH20 0xFFFFFFFFFFFFFFFFFFFFFFFFFFFFFFFFFFFFFFFF AND DUP2 MSTORE PUSH1 0x20 ADD SWAP1 PUSH1 0x1 ADD SWAP1 DUP1 DUP4 GT PUSH2 0x79C JUMPI JUMPDEST POP POP POP POP POP SWAP1 POP SWAP1 JUMP JUMPDEST PUSH1 0x4 SLOAD DUP2 JUMP JUMPDEST PUSH1 0x0 PUSH1 0x6 SLOAD SWAP1 POP SWAP1 JUMP JUMPDEST PUSH1 0x0 DUP2 DUP2 SLOAD DUP2 LT PUSH2 0x810 JUMPI PUSH1 0x0 DUP1 REVERT JUMPDEST SWAP1 PUSH1 0x0 MSTORE PUSH1 0x20 PUSH1 0x0 KECCAK256 ADD PUSH1 0x0 SWAP2 POP SLOAD SWAP1 PUSH2 0x100 EXP SWAP1 DIV PUSH20 0xFFFFFFFFFFFFFFFFFFFFFFFFFFFFFFFFFFFFFFFF AND DUP2 JUMP JUMPDEST PUSH1 0x0 PUSH1 0x1 PUSH1 0x0 DUP4 PUSH20 0xFFFFFFFFFFFFFFFFFFFFFFFFFFFFFFFFFFFFFFFF AND PUSH20 0xFFFFFFFFFFFFFFFFFFFFFFFFFFFFFFFFFFFFFFFF AND DUP2 MSTORE PUSH1 0x20 ADD SWAP1 DUP2 MSTORE PUSH1 0x20 ADD PUSH1 0x0 KECCAK256 PUSH1 0x0 SWAP1 SLOAD SWAP1 PUSH2 0x100 EXP SWAP1 DIV PUSH1 0xFF AND SWAP1 POP SWAP2 SWAP1 POP JUMP JUMPDEST PUSH1 0x0 PUSH2 0x8A0 DUP3 PUSH2 0xBAC JUMP JUMPDEST ISZERO DUP1 ISZERO PUSH2 0x904 JUMPI POP PUSH6 0x5AF3107A4000 PUSH16 0xFFFFFFFFFFFFFFFFFFFFFFFFFFFFFFFF AND PUSH1 0x2 PUSH1 0x0 DUP5 PUSH20 0xFFFFFFFFFFFFFFFFFFFFFFFFFFFFFFFFFFFFFFFF AND PUSH20 0xFFFFFFFFFFFFFFFFFFFFFFFFFFFFFFFFFFFFFFFF AND DUP2 MSTORE PUSH1 0x20 ADD SWAP1 DUP2 MSTORE PUSH1 0x20 ADD PUSH1 0x0 KECCAK256 SLOAD LT ISZERO JUMPDEST SWAP1 POP SWAP2 SWAP1 POP JUMP JUMPDEST PUSH1 0x6 SLOAD PUSH1 0x0 DUP1 SLOAD SWAP1 POP LT PUSH2 0x954 JUMPI PUSH1 0x40 MLOAD PUSH32 0x8C379A000000000000000000000000000000000000000000000000000000000 DUP2 MSTORE PUSH1 0x4 ADD PUSH2 0x94B SWAP1 PUSH2 0x116C JUMP JUMPDEST PUSH1 0x40 MLOAD DUP1 SWAP2 SUB SWAP1 REVERT JUMPDEST PUSH1 0x1 DUP1 PUSH1 0x0 DUP4 PUSH20 0xFFFFFFFFFFFFFFFFFFFFFFFFFFFFFFFFFFFFFFFF AND PUSH20 0xFFFFFFFFFFFFFFFFFFFFFFFFFFFFFFFFFFFFFFFF AND DUP2 MSTORE PUSH1 0x20 ADD SWAP1 DUP2 MSTORE PUSH1 0x20 ADD PUSH1 0x0 KECCAK256 PUSH1 0x0 PUSH2 0x100 EXP DUP2 SLOAD DUP2 PUSH1 0xFF MUL NOT AND SWAP1 DUP4 ISZERO ISZERO MUL OR SWAP1 SSTORE POP PUSH1 0x0 DUP1 SLOAD SWAP1 POP PUSH1 0x3 PUSH1 0x0 DUP4 PUSH20 0xFFFFFFFFFFFFFFFFFFFFFFFFFFFFFFFFFFFFFFFF AND PUSH20 0xFFFFFFFFFFFFFFFFFFFFFFFFFFFFFFFFFFFFFFFF AND DUP2 MSTORE PUSH1 0x20 ADD SWAP1 DUP2 MSTORE PUSH1 0x20 ADD PUSH1 0x0 KECCAK256 DUP2 SWAP1 SSTORE POP PUSH1 0x0 DUP2 SWAP1 DUP1 PUSH1 0x1 DUP2 SLOAD ADD DUP1 DUP3 SSTORE DUP1 SWAP2 POP POP PUSH1 0x1 SWAP1 SUB SWAP1 PUSH1 0x0 MSTORE PUSH1 0x20 PUSH1 0x0 KECCAK256 ADD PUSH1 0x0 SWAP1 SWAP2 SWAP1 SWAP2 SWAP1 SWAP2 PUSH2 0x100 EXP DUP2 SLOAD DUP2 PUSH20 0xFFFFFFFFFFFFFFFFFFFFFFFFFFFFFFFFFFFFFFFF MUL NOT AND SWAP1 DUP4 PUSH20 0xFFFFFFFFFFFFFFFFFFFFFFFFFFFFFFFFFFFFFFFF AND MUL OR SWAP1 SSTORE POP POP JUMP JUMPDEST PUSH1 0x0 PUSH1 0x2 PUSH1 0x0 CALLER PUSH20 0xFFFFFFFFFFFFFFFFFFFFFFFFFFFFFFFFFFFFFFFF AND PUSH20 0xFFFFFFFFFFFFFFFFFFFFFFFFFFFFFFFFFFFFFFFF AND DUP2 MSTORE PUSH1 0x20 ADD SWAP1 DUP2 MSTORE PUSH1 0x20 ADD PUSH1 0x0 KECCAK256 SLOAD SWAP1 POP PUSH1 0x0 PUSH1 0x2 PUSH1 0x0 CALLER PUSH20 0xFFFFFFFFFFFFFFFFFFFFFFFFFFFFFFFFFFFFFFFF AND PUSH20 0xFFFFFFFFFFFFFFFFFFFFFFFFFFFFFFFFFFFFFFFF AND DUP2 MSTORE PUSH1 0x20 ADD SWAP1 DUP2 MSTORE PUSH1 0x20 ADD PUSH1 0x0 KECCAK256 DUP2 SWAP1 SSTORE POP DUP1 PUSH1 0x4 PUSH1 0x0 DUP3 DUP3 SLOAD PUSH2 0xAF5 SWAP2 SWAP1 PUSH2 0x12C2 JUMP JUMPDEST SWAP3 POP POP DUP2 SWAP1 SSTORE POP PUSH2 0xB05 CALLER PUSH2 0xBAC JUMP JUMPDEST ISZERO PUSH2 0xB14 JUMPI PUSH2 0xB13 CALLER PUSH2 0xC02 JUMP JUMPDEST JUMPDEST CALLER PUSH20 0xFFFFFFFFFFFFFFFFFFFFFFFFFFFFFFFFFFFFFFFF AND PUSH2 0x8FC DUP3 SWAP1 DUP2 ISZERO MUL SWAP1 PUSH1 0x40 MLOAD PUSH1 0x0 PUSH1 0x40 MLOAD DUP1 DUP4 SUB DUP2 DUP6 DUP9 DUP9 CALL SWAP4 POP POP POP POP ISZERO DUP1 ISZERO PUSH2 0xB5A JUMPI RETURNDATASIZE PUSH1 0x0 DUP1 RETURNDATACOPY RETURNDATASIZE PUSH1 0x0 REVERT JUMPDEST POP CALLER PUSH20 0xFFFFFFFFFFFFFFFFFFFFFFFFFFFFFFFFFFFFFFFF AND PUSH32 0xF5BB82176FEB1B5E747E28471AA92156A04D9F3AB9F45F28E2D704232B93F75 DUP3 PUSH1 0x40 MLOAD PUSH2 0xBA1 SWAP2 SWAP1 PUSH2 0x1207 JUMP JUMPDEST PUSH1 0x40 MLOAD DUP1 SWAP2 SUB SWAP1 LOG2 POP JUMP JUMPDEST PUSH1 0x0 PUSH1 0x1 PUSH1 0x0 DUP4 PUSH20 0xFFFFFFFFFFFFFFFFFFFFFFFFFFFFFFFFFFFFFFFF AND PUSH20 0xFFFFFFFFFFFFFFFFFFFFFFFFFFFFFFFFFFFFFFFF AND DUP2 MSTORE PUSH1 0x20 ADD SWAP1 DUP2 MSTORE PUSH1 0x20 ADD PUSH1 0x0 KECCAK256 PUSH1 0x0 SWAP1 SLOAD SWAP1 PUSH2 0x100 EXP SWAP1 DIV PUSH1 0xFF AND SWAP1 POP SWAP2 SWAP1 POP JUMP JUMPDEST PUSH1 0x5 SLOAD PUSH1 0x0 DUP1 SLOAD SWAP1 POP GT PUSH2 0xC4B JUMPI PUSH1 0x40 MLOAD PUSH32 0x8C379A000000000000000000000000000000000000000000000000000000000 DUP2 MSTORE PUSH1 0x4 ADD PUSH2 0xC42 SWAP1 PUSH2 0x11CC JUMP JUMPDEST PUSH1 0x40 MLOAD DUP1 SWAP2 SUB SWAP1 REVERT JUMPDEST PUSH1 0x0 DUP1 SLOAD SWAP1 POP PUSH1 0x3 PUSH1 0x0 DUP4 PUSH20 0xFFFFFFFFFFFFFFFFFFFFFFFFFFFFFFFFFFFFFFFF AND PUSH20 0xFFFFFFFFFFFFFFFFFFFFFFFFFFFFFFFFFFFFFFFF AND DUP2 MSTORE PUSH1 0x20 ADD SWAP1 DUP2 MSTORE PUSH1 0x20 ADD PUSH1 0x0 KECCAK256 SLOAD LT PUSH2 0xCD1 JUMPI PUSH1 0x40 MLOAD PUSH32 0x8C379A000000000000000000000000000000000000000000000000000000000 DUP2 MSTORE PUSH1 0x4 ADD PUSH2 0xCC8 SWAP1 PUSH2 0x118C JUMP JUMPDEST PUSH1 0x40 MLOAD DUP1 SWAP2 SUB SWAP1 REVERT JUMPDEST PUSH1 0x0 PUSH1 0x3 PUSH1 0x0 DUP4 PUSH20 0xFFFFFFFFFFFFFFFFFFFFFFFFFFFFFFFFFFFFFFFF AND PUSH20 0xFFFFFFFFFFFFFFFFFFFFFFFFFFFFFFFFFFFFFFFF AND DUP2 MSTORE PUSH1 0x20 ADD SWAP1 DUP2 MSTORE PUSH1 0x20 ADD PUSH1 0x0 KECCAK256 SLOAD SWAP1 POP PUSH1 0x0 PUSH1 0x1 PUSH1 0x0 DUP1 SLOAD SWAP1 POP PUSH2 0xD29 SWAP2 SWAP1 PUSH2 0x12C2 JUMP JUMPDEST SWAP1 POP DUP1 DUP3 EQ PUSH2 0xE17 JUMPI PUSH1 0x0 DUP1 DUP3 DUP2 SLOAD DUP2 LT PUSH2 0xD47 JUMPI PUSH2 0xD46 PUSH2 0x13B8 JUMP JUMPDEST JUMPDEST SWAP1 PUSH1 0x0 MSTORE PUSH1 0x20 PUSH1 0x0 KECCAK256 ADD PUSH1 0x0 SWAP1 SLOAD SWAP1 PUSH2 0x100 EXP SWAP1 DIV PUSH20 0xFFFFFFFFFFFFFFFFFFFFFFFFFFFFFFFFFFFFFFFF AND SWAP1 POP DUP1 PUSH1 0x0 DUP5 DUP2 SLOAD DUP2 LT PUSH2 0xD89 JUMPI PUSH2 0xD88 PUSH2 0x13B8 JUMP JUMPDEST JUMPDEST SWAP1 PUSH1 0x0 MSTORE PUSH1 0x20 PUSH1 0x0 KECCAK256 ADD PUSH1 0x0 PUSH2 0x100 EXP DUP2 SLOAD DUP2 PUSH20 0xFFFFFFFFFFFFFFFFFFFFFFFFFFFFFFFFFFFFFFFF MUL NOT AND SWAP1 DUP4 PUSH20 0xFFFFFFFFFFFFFFFFFFFFFFFFFFFFFFFFFFFFFFFF AND MUL OR SWAP1 SSTORE POP DUP3 PUSH1 0x3 PUSH1 0x0 DUP4 PUSH20 0xFFFFFFFFFFFFFFFFFFFFFFFFFFFFFFFFFFFFFFFF AND PUSH20 0xFFFFFFFFFFFFFFFFFFFFFFFFFFFFFFFFFFFFFFFF AND DUP2 MSTORE PUSH1 0x20 ADD SWAP1 DUP2 MSTORE PUSH1 0x20 ADD PUSH1 0x0 KECCAK256 DUP2 SWAP1 SSTORE POP POP JUMPDEST PUSH1 0x0 PUSH1 0x1 PUSH1 0x0 DUP6 PUSH20 0xFFFFFFFFFFFFFFFFFFFFFFFFFFFFFFFFFFFFFFFF AND PUSH20 0xFFFFFFFFFFFFFFFFFFFFFFFFFFFFFFFFFFFFFFFF AND DUP2 MSTORE PUSH1 0x20 ADD SWAP1 DUP2 MSTORE PUSH1 0x20 ADD PUSH1 0x0 KECCAK256 PUSH1 0x0 PUSH2 0x100 EXP DUP2 SLOAD DUP2 PUSH1 0xFF MUL NOT AND SWAP1 DUP4 ISZERO ISZERO MUL OR SWAP1 SSTORE POP PUSH1 0x0 PUSH1 0x3 PUSH1 0x0 DUP6 PUSH20 0xFFFFFFFFFFFFFFFFFFFFFFFFFFFFFFFFFFFFFFFF AND PUSH20 0xFFFFFFFFFFFFFFFFFFFFFFFFFFFFFFFFFFFFFFFF AND DUP2 MSTORE PUSH1 0x20 ADD SWAP1 DUP2 MSTORE PUSH1 0x20 ADD PUSH1 0x0 KECCAK256 DUP2 SWAP1 SSTORE POP PUSH1 0x0 DUP1 SLOAD DUP1 PUSH2 0xEC6 JUMPI PUSH2 0xEC5 PUSH2 0x1389 JUMP JUMPDEST JUMPDEST PUSH1 0x1 SWAP1 SUB DUP2 DUP2 SWAP1 PUSH1 0x0 MSTORE PUSH1 0x20 PUSH1 0x0 KECCAK256 ADD PUSH1 0x0 PUSH2 0x100 EXP DUP2 SLOAD SWAP1 PUSH20 0xFFFFFFFFFFFFFFFFFFFFFFFFFFFFFFFFFFFFFFFF MUL NOT AND SWAP1 SSTORE SWAP1 SSTORE POP POP POP JUMP JUMPDEST PUSH1 0x0 DUP2 CALLDATALOAD SWAP1 POP PUSH2 0xF0F DUP2 PUSH2 0x1505 JUMP JUMPDEST SWAP3 SWAP2 POP POP JUMP JUMPDEST PUSH1 0x0 DUP2 CALLDATALOAD SWAP1 POP PUSH2 0xF24 DUP2 PUSH2 0x151C JUMP JUMPDEST SWAP3 SWAP2 POP POP JUMP JUMPDEST PUSH1 0x0 PUSH1 0x20 DUP3 DUP5 SUB SLT ISZERO PUSH2 0xF40 JUMPI PUSH2 0xF3F PUSH2 0x13E7 JUMP JUMPDEST JUMPDEST PUSH1 0x0 PUSH2 0xF4E DUP5 DUP3 DUP6 ADD PUSH2 0xF00 JUMP JUMPDEST SWAP2 POP POP SWAP3 SWAP2 POP POP JUMP JUMPDEST PUSH1 0x0 PUSH1 0x20 DUP3 DUP5 SUB SLT ISZERO PUSH2 0xF6D JUMPI PUSH2 0xF6C PUSH2 0x13E7 JUMP JUMPDEST JUMPDEST PUSH1 0x0 PUSH2 0xF7B DUP5 DUP3 DUP6 ADD PUSH2 0xF15 JUMP JUMPDEST SWAP2 POP POP SWAP3 SWAP2 POP POP JUMP JUMPDEST PUSH1 0x0 PUSH2 0xF90 DUP4 DUP4 PUSH2 0xF9C JUMP JUMPDEST PUSH1 0x20 DUP4 ADD SWAP1 POP SWAP3 SWAP2 POP POP JUMP JUMPDEST PUSH2 0xFA5 DUP2 PUSH2 0x12F6 JUMP JUMPDEST DUP3 MSTORE POP POP JUMP JUMPDEST PUSH2 0xFB4 DUP2 PUSH2 0x12F6 JUMP JUMPDEST DUP3 MSTORE POP POP JUMP JUMPDEST PUSH1 0x0 PUSH2 0xFC5 DUP3 PUSH2 0x1232 JUMP JUMPDEST PUSH2 0xFCF DUP2 DUP6 PUSH2 0x124A JUMP JUMPDEST SWAP4 POP PUSH2 0xFDA DUP4 PUSH2 0x1222 JUMP JUMPDEST DUP1 PUSH1 0x0 JUMPDEST DUP4 DUP2 LT ISZERO PUSH2 0x100B JUMPI DUP2 MLOAD PUSH2 0xFF2 DUP9 DUP3 PUSH2 0xF84 JUMP JUMPDEST SWAP8 POP PUSH2 0xFFD DUP4 PUSH2 0x123D JUMP JUMPDEST SWAP3 POP POP PUSH1 0x1 DUP2 ADD SWAP1 POP PUSH2 0xFDE JUMP JUMPDEST POP DUP6 SWAP4 POP POP POP POP SWAP3 SWAP2 POP POP JUMP JUMPDEST PUSH2 0x1021 DUP2 PUSH2 0x1308 JUMP JUMPDEST DUP3 MSTORE POP POP JUMP JUMPDEST PUSH1 0x0 PUSH2 0x1034 PUSH1 0x1D DUP4 PUSH2 0x125B JUMP JUMPDEST SWAP2 POP PUSH2 0x103F DUP3 PUSH2 0x13EC JUMP JUMPDEST PUSH1 0x20 DUP3 ADD SWAP1 POP SWAP2 SWAP1 POP JUMP JUMPDEST PUSH1 0x0 PUSH2 0x1057 PUSH1 0x27 DUP4 PUSH2 0x125B JUMP JUMPDEST SWAP2 POP PUSH2 0x1062 DUP3 PUSH2 0x1415 JUMP JUMPDEST PUSH1 0x40 DUP3 ADD SWAP1 POP SWAP2 SWAP1 POP JUMP JUMPDEST PUSH1 0x0 PUSH2 0x107A PUSH1 0x12 DUP4 PUSH2 0x125B JUMP JUMPDEST SWAP2 POP PUSH2 0x1085 DUP3 PUSH2 0x1464 JUMP JUMPDEST PUSH1 0x20 DUP3 ADD SWAP1 POP SWAP2 SWAP1 POP JUMP JUMPDEST PUSH1 0x0 PUSH2 0x109D PUSH1 0x1A DUP4 PUSH2 0x125B JUMP JUMPDEST SWAP2 POP PUSH2 0x10A8 DUP3 PUSH2 0x148D JUMP JUMPDEST PUSH1 0x20 DUP3 ADD SWAP1 POP SWAP2 SWAP1 POP JUMP JUMPDEST PUSH1 0x0 PUSH2 0x10C0 PUSH1 0x40 DUP4 PUSH2 0x125B JUMP JUMPDEST SWAP2 POP PUSH2 0x10CB DUP3 PUSH2 0x14B6 JUMP JUMPDEST PUSH1 0x40 DUP3 ADD SWAP1 POP SWAP2 SWAP1 POP JUMP JUMPDEST PUSH2 0x10DF DUP2 PUSH2 0x1314 JUMP JUMPDEST DUP3 MSTORE POP POP JUMP JUMPDEST PUSH2 0x10EE DUP2 PUSH2 0x1350 JUMP JUMPDEST DUP3 MSTORE POP POP JUMP JUMPDEST PUSH1 0x0 PUSH1 0x20 DUP3 ADD SWAP1 POP PUSH2 0x1109 PUSH1 0x0 DUP4 ADD DUP5 PUSH2 0xFAB JUMP JUMPDEST SWAP3 SWAP2 POP POP JUMP JUMPDEST PUSH1 0x0 PUSH1 0x20 DUP3 ADD SWAP1 POP DUP2 DUP2 SUB PUSH1 0x0 DUP4 ADD MSTORE PUSH2 0x1129 DUP2 DUP5 PUSH2 0xFBA JUMP JUMPDEST SWAP1 POP SWAP3 SWAP2 POP POP JUMP JUMPDEST PUSH1 0x0 PUSH1 0x20 DUP3 ADD SWAP1 POP PUSH2 0x1146 PUSH1 0x0 DUP4 ADD DUP5 PUSH2 0x1018 JUMP JUMPDEST SWAP3 SWAP2 POP POP JUMP JUMPDEST PUSH1 0x0 PUSH1 0x20 DUP3 ADD SWAP1 POP DUP2 DUP2 SUB PUSH1 0x0 DUP4 ADD MSTORE PUSH2 0x1165 DUP2 PUSH2 0x1027 JUMP JUMPDEST SWAP1 POP SWAP2 SWAP1 POP JUMP JUMPDEST PUSH1 0x0 PUSH1 0x20 DUP3 ADD SWAP1 POP DUP2 DUP2 SUB PUSH1 0x0 DUP4 ADD MSTORE PUSH2 0x1185 DUP2 PUSH2 0x104A JUMP JUMPDEST SWAP1 POP SWAP2 SWAP1 POP JUMP JUMPDEST PUSH1 0x0 PUSH1 0x20 DUP3 ADD SWAP1 POP DUP2 DUP2 SUB PUSH1 0x0 DUP4 ADD MSTORE PUSH2 0x11A5 DUP2 PUSH2 0x106D JUMP JUMPDEST SWAP1 POP SWAP2 SWAP1 POP JUMP JUMPDEST PUSH1 0x0 PUSH1 0x20 DUP3 ADD SWAP1 POP DUP2 DUP2 SUB PUSH1 0x0 DUP4 ADD MSTORE PUSH2 0x11C5 DUP2 PUSH2 0x1090 JUMP JUMPDEST SWAP1 POP SWAP2 SWAP1 POP JUMP JUMPDEST PUSH1 0x0 PUSH1 0x20 DUP3 ADD SWAP1 POP DUP2 DUP2 SUB PUSH1 0x0 DUP4 ADD MSTORE PUSH2 0x11E5 DUP2 PUSH2 0x10B3 JUMP JUMPDEST SWAP1 POP SWAP2 SWAP1 POP JUMP JUMPDEST PUSH1 0x0 PUSH1 0x20 DUP3 ADD SWAP1 POP PUSH2 0x1201 PUSH1 0x0 DUP4 ADD DUP5 PUSH2 0x10D6 JUMP JUMPDEST SWAP3 SWAP2 POP POP JUMP JUMPDEST PUSH1 0x0 PUSH1 0x20 DUP3 ADD SWAP1 POP PUSH2 0x121C PUSH1 0x0 DUP4 ADD DUP5 PUSH2 0x10E5 JUMP JUMPDEST SWAP3 SWAP2 POP POP JUMP JUMPDEST PUSH1 0x0 DUP2 SWAP1 POP PUSH1 0x20 DUP3 ADD SWAP1 POP SWAP2 SWAP1 POP JUMP JUMPDEST PUSH1 0x0 DUP2 MLOAD SWAP1 POP SWAP2 SWAP1 POP JUMP JUMPDEST PUSH1 0x0 PUSH1 0x20 DUP3 ADD SWAP1 POP SWAP2 SWAP1 POP JUMP JUMPDEST PUSH1 0x0 DUP3 DUP3 MSTORE PUSH1 0x20 DUP3 ADD SWAP1 POP SWAP3 SWAP2 POP POP JUMP JUMPDEST PUSH1 0x0 DUP3 DUP3 MSTORE PUSH1 0x20 DUP3 ADD SWAP1 POP SWAP3 SWAP2 POP POP JUMP JUMPDEST PUSH1 0x0 PUSH2 0x1277 DUP3 PUSH2 0x1350 JUMP JUMPDEST SWAP2 POP PUSH2 0x1282 DUP4 PUSH2 0x1350 JUMP JUMPDEST SWAP3 POP DUP3 PUSH32 0xFFFFFFFFFFFFFFFFFFFFFFFFFFFFFFFFFFFFFFFFFFFFFFFFFFFFFFFFFFFFFFFF SUB DUP3 GT ISZERO PUSH2 0x12B7 JUMPI PUSH2 0x12B6 PUSH2 0x135A JUMP JUMPDEST JUMPDEST DUP3 DUP3 ADD SWAP1 POP SWAP3 SWAP2 POP POP JUMP JUMPDEST PUSH1 0x0 PUSH2 0x12CD DUP3 PUSH2 0x1350 JUMP JUMPDEST SWAP2 POP PUSH2 0x12D8 DUP4 PUSH2 0x1350 JUMP JUMPDEST SWAP3 POP DUP3 DUP3 LT ISZERO PUSH2 0x12EB JUMPI PUSH2 0x12EA PUSH2 0x135A JUMP JUMPDEST JUMPDEST DUP3 DUP3 SUB SWAP1 POP SWAP3 SWAP2 POP POP JUMP JUMPDEST PUSH1 0x0 PUSH2 0x1301 DUP3 PUSH2 0x1330 JUMP JUMPDEST SWAP1 POP SWAP2 SWAP1 POP JUMP JUMPDEST PUSH1 0x0 DUP2 ISZERO ISZERO SWAP1 POP SWAP2 SWAP1 POP JUMP JUMPDEST PUSH1 0x0 PUSH16 0xFFFFFFFFFFFFFFFFFFFFFFFFFFFFFFFF DUP3 AND SWAP1 POP SWAP2 SWAP1 POP JUMP JUMPDEST PUSH1 0x0 PUSH20 0xFFFFFFFFFFFFFFFFFFFFFFFFFFFFFFFFFFFFFFFF DUP3 AND SWAP1 POP SWAP2 SWAP1 POP JUMP JUMPDEST PUSH1 0x0 DUP2 SWAP1 POP SWAP2 SWAP1 POP JUMP JUMPDEST PUSH32 0x4E487B7100000000000000000000000000000000000000000000000000000000 PUSH1 0x0 MSTORE PUSH1 0x11 PUSH1 0x4 MSTORE PUSH1 0x24 PUSH1 0x0 REVERT JUMPDEST PUSH32 0x4E487B7100000000000000000000000000000000000000000000000000000000 PUSH1 0x0 MSTORE PUSH1 0x31 PUSH1 0x4 MSTORE PUSH1 0x24 PUSH1 0x0 REVERT JUMPDEST PUSH32 0x4E487B7100000000000000000000000000000000000000000000000000000000 PUSH1 0x0 MSTORE PUSH1 0x32 PUSH1 0x4 MSTORE PUSH1 0x24 PUSH1 0x0 REVERT JUMPDEST PUSH1 0x0 DUP1 REVERT JUMPDEST PUSH32 0x4F6E6C79207374616B65722063616E2063616C6C2066756E6374696F6E000000 PUSH1 0x0 DUP3 ADD MSTORE POP JUMP JUMPDEST PUSH32 0x56616C696461746F72207365742068617320726561636865642066756C6C2063 PUSH1 0x0 DUP3 ADD MSTORE PUSH32 0x6170616369747900000000000000000000000000000000000000000000000000 PUSH1 0x20 DUP3 ADD MSTORE POP JUMP JUMPDEST PUSH32 0x696E646578206F7574206F662072616E67650000000000000000000000000000 PUSH1 0x0 DUP3 ADD MSTORE POP JUMP JUMPDEST PUSH32 0x4F6E6C7920454F412063616E2063616C6C2066756E6374696F6E000000000000 PUSH1 0x0 DUP3 ADD MSTORE POP JUMP JUMPDEST PUSH32 0x56616C696461746F72732063616E2774206265206C657373207468616E207468 PUSH1 0x0 DUP3 ADD MSTORE PUSH32 0x65206D696E696D756D2072657175697265642076616C696461746F72206E756D PUSH1 0x20 DUP3 ADD MSTORE POP JUMP JUMPDEST PUSH2 0x150E DUP2 PUSH2 0x12F6 JUMP JUMPDEST DUP2 EQ PUSH2 0x1519 JUMPI PUSH1 0x0 DUP1 REVERT JUMPDEST POP JUMP JUMPDEST PUSH2 0x1525 DUP2 PUSH2 0x1350 JUMP JUMPDEST DUP2 EQ PUSH2 0x1530 JUMPI PUSH1 0x0 DUP1 REVERT JUMPDEST POP JUMP INVALID LOG2 PUSH5 0x6970667358 0x22 SLT KECCAK256 0xC9 0x49 0xEF BASEFEE 0x23 0xE5 SWAP13 0xDB OR 0xE9 DUP9 0xB8 BLOCKHASH 0x25 PUSH18 0x55B11B639C193FFE21E98B1AFE6C52B96264 PUSH20 0x6F6C634300080700330000000000000000000000 "
				},
				"gasEstimates": {
					"creation": {
						"codeDepositCost": "1096200",
						"executionCost": "infinite",
						"totalCost": "infinite"
					},
					"external": {
						"VALIDATOR_THRESHOLD()": "424",
						"_addressToIsValidator(address)": "2891",
						"_addressToStakedAmount(address)": "2837",
						"_addressToValidatorIndex(address)": "2838",
						"_maximumNumValidators()": "2474",
						"_minimumNumValidators()": "2496",
						"_stakedAmount()": "2451",
						"_validators(uint256)": "5022",
						"accountStake(address)": "2909",
						"isValidator(address)": "2971",
						"maximumNumValidators()": "2481",
						"minimumNumValidators()": "2504",
						"stake()": "infinite",
						"stakedAmount()": "2460",
						"unstake()": "infinite",
						"validators()": "infinite"
					},
					"internal": {
						"_appendToValidatorSet(address)": "infinite",
						"_canBecomeValidator(address)": "4536",
						"_deleteFromValidators(address)": "infinite",
						"_isValidator(address)": "2260",
						"_stake()": "infinite",
						"_unstake()": "infinite"
					}
				},
				"methodIdentifiers": {
					"VALIDATOR_THRESHOLD()": "7a6eea37",
					"_addressToIsValidator(address)": "065ae171",
					"_addressToStakedAmount(address)": "7dceceb8",
					"_addressToValidatorIndex(address)": "02b75199",
					"_maximumNumValidators()": "af6da36e",
					"_minimumNumValidators()": "c795c077",
					"_stakedAmount()": "e387a7ed",
					"_validators(uint256)": "f90ecacc",
					"accountStake(address)": "2367f6b5",
					"isValidator(address)": "facd743b",
					"maximumNumValidators()": "e804fbf6",
					"minimumNumValidators()": "714ff425",
					"stake()": "3a4b66f1",
					"stakedAmount()": "373d6132",
					"unstake()": "2def6620",
					"validators()": "ca1e7819"
				}
			},
			"storageLayout": {
				"storage": [
					{
						"astId": 306,
						"contract": "contracts/Staking.sol:Staking",
						"label": "_validators",
						"offset": 0,
						"slot": "0",
						"type": "t_array(t_address)dyn_storage"
					},
					{
						"astId": 310,
						"contract": "contracts/Staking.sol:Staking",
						"label": "_addressToIsValidator",
						"offset": 0,
						"slot": "1",
						"type": "t_mapping(t_address,t_bool)"
					},
					{
						"astId": 314,
						"contract": "contracts/Staking.sol:Staking",
						"label": "_addressToStakedAmount",
						"offset": 0,
						"slot": "2",
						"type": "t_mapping(t_address,t_uint256)"
					},
					{
						"astId": 318,
						"contract": "contracts/Staking.sol:Staking",
						"label": "_addressToValidatorIndex",
						"offset": 0,
						"slot": "3",
						"type": "t_mapping(t_address,t_uint256)"
					},
					{
						"astId": 320,
						"contract": "contracts/Staking.sol:Staking",
						"label": "_stakedAmount",
						"offset": 0,
						"slot": "4",
						"type": "t_uint256"
					},
					{
						"astId": 322,
						"contract": "contracts/Staking.sol:Staking",
						"label": "_minimumNumValidators",
						"offset": 0,
						"slot": "5",
						"type": "t_uint256"
					},
					{
						"astId": 324,
						"contract": "contracts/Staking.sol:Staking",
						"label": "_maximumNumValidators",
						"offset": 0,
						"slot": "6",
						"type": "t_uint256"
					}
				],
				"types": {
					"t_address": {
						"encoding": "inplace",
						"label": "address",
						"numberOfBytes": "20"
					},
					"t_array(t_address)dyn_storage": {
						"base": "t_address",
						"encoding": "dynamic_array",
						"label": "address[]",
						"numberOfBytes": "32"
					},
					"t_bool": {
						"encoding": "inplace",
						"label": "bool",
						"numberOfBytes": "1"
					},
					"t_mapping(t_address,t_bool)": {
						"encoding": "mapping",
						"key": "t_address",
						"label": "mapping(address => bool)",
						"numberOfBytes": "32",
						"value": "t_bool"
					},
					"t_mapping(t_address,t_uint256)": {
						"encoding": "mapping",
						"key": "t_address",
						"label": "mapping(address => uint256)",
						"numberOfBytes": "32",
						"value": "t_uint256"
					},
					"t_uint256": {
						"encoding": "inplace",
						"label": "uint256",
						"numberOfBytes": "32"
					}
				}
			},
			"userdoc": {
				"kind": "user",
				"methods": {},
				"version": 1
			}
		}
	}
}